{
  "_format": "hh-sol-artifact-1",
  "contractName": "FundManager",
  "sourceName": "contracts/FundManager.sol",
  "abi": [
    {
      "anonymous": false,
      "inputs": [
        {
          "indexed": true,
          "internalType": "address",
          "name": "previousOwner",
          "type": "address"
        },
        {
          "indexed": true,
          "internalType": "address",
          "name": "newOwner",
          "type": "address"
        }
      ],
      "name": "OwnershipTransferred",
      "type": "event"
    },
    {
      "inputs": [],
      "name": "balance",
      "outputs": [
        {
          "internalType": "uint256",
          "name": "",
          "type": "uint256"
        }
      ],
      "stateMutability": "view",
      "type": "function"
    },
    {
      "inputs": [],
      "name": "complete",
      "outputs": [],
      "stateMutability": "payable",
      "type": "function"
    },
    {
      "inputs": [],
      "name": "completed",
      "outputs": [
        {
          "internalType": "bool",
          "name": "",
          "type": "bool"
        }
      ],
      "stateMutability": "view",
      "type": "function"
    },
    {
      "inputs": [],
      "name": "owner",
      "outputs": [
        {
          "internalType": "address",
          "name": "",
          "type": "address"
        }
      ],
      "stateMutability": "view",
      "type": "function"
    },
    {
      "inputs": [],
      "name": "renounceOwnership",
      "outputs": [],
      "stateMutability": "nonpayable",
      "type": "function"
    },
    {
      "inputs": [
        {
          "internalType": "address",
          "name": "newOwner",
          "type": "address"
        }
      ],
      "name": "transferOwnership",
      "outputs": [],
      "stateMutability": "nonpayable",
      "type": "function"
    },
    {
      "inputs": [
        {
          "internalType": "address payable",
          "name": "_to",
          "type": "address"
        }
      ],
      "name": "withdraw",
      "outputs": [],
      "stateMutability": "nonpayable",
      "type": "function"
    }
  ],
  "bytecode": "0x608060405234801561001057600080fd5b5061002d61002261003260201b60201c565b61003a60201b60201c565b6100fe565b600033905090565b60008060009054906101000a900473ffffffffffffffffffffffffffffffffffffffff169050816000806101000a81548173ffffffffffffffffffffffffffffffffffffffff021916908373ffffffffffffffffffffffffffffffffffffffff1602179055508173ffffffffffffffffffffffffffffffffffffffff168173ffffffffffffffffffffffffffffffffffffffff167f8be0079c531659141344cd1fd0a4f28419497f9722a3daafe3b4186f6b6457e060405160405180910390a35050565b6108c58061010d6000396000f3fe6080604052600436106100705760003560e01c80638da5cb5b1161004e5780638da5cb5b146100bf5780639d9a7fe9146100ea578063b69ef8a814610115578063f2fde38b1461014057610070565b806351cff8d914610075578063522e11771461009e578063715018a6146100a8575b600080fd5b34801561008157600080fd5b5061009c6004803603810190610097919061056f565b610169565b005b6100a6610219565b005b3480156100b457600080fd5b506100bd61028c565b005b3480156100cb57600080fd5b506100d4610314565b6040516100e1919061071a565b60405180910390f35b3480156100f657600080fd5b506100ff61033d565b60405161010c9190610735565b60405180910390f35b34801561012157600080fd5b5061012a610350565b60405161013791906107d0565b60405180910390f35b34801561014c57600080fd5b5061016760048036038101906101629190610546565b610358565b005b60008173ffffffffffffffffffffffffffffffffffffffff164760405161018f90610705565b60006040518083038185875af1925050503d80600081146101cc576040519150601f19603f3d011682016040523d82523d6000602084013e6101d1565b606091505b5050905080610215576040517f08c379a000000000000000000000000000000000000000000000000000000000815260040161020c90610770565b60405180910390fd5b5050565b60001515600060149054906101000a900460ff1615151461026f576040517f08c379a0000000000000000000000000000000000000000000000000000000008152600401610266906107b0565b60405180910390fd5b6001600060146101000a81548160ff021916908315150217905550565b610294610450565b73ffffffffffffffffffffffffffffffffffffffff166102b2610314565b73ffffffffffffffffffffffffffffffffffffffff1614610308576040517f08c379a00000000000000000000000000000000000000000000000000000000081526004016102ff90610790565b60405180910390fd5b6103126000610458565b565b60008060009054906101000a900473ffffffffffffffffffffffffffffffffffffffff16905090565b600060149054906101000a900460ff1681565b600047905090565b610360610450565b73ffffffffffffffffffffffffffffffffffffffff1661037e610314565b73ffffffffffffffffffffffffffffffffffffffff16146103d4576040517f08c379a00000000000000000000000000000000000000000000000000000000081526004016103cb90610790565b60405180910390fd5b600073ffffffffffffffffffffffffffffffffffffffff168173ffffffffffffffffffffffffffffffffffffffff161415610444576040517f08c379a000000000000000000000000000000000000000000000000000000000815260040161043b90610750565b60405180910390fd5b61044d81610458565b50565b600033905090565b60008060009054906101000a900473ffffffffffffffffffffffffffffffffffffffff169050816000806101000a81548173ffffffffffffffffffffffffffffffffffffffff021916908373ffffffffffffffffffffffffffffffffffffffff1602179055508173ffffffffffffffffffffffffffffffffffffffff168173ffffffffffffffffffffffffffffffffffffffff167f8be0079c531659141344cd1fd0a4f28419497f9722a3daafe3b4186f6b6457e060405160405180910390a35050565b60008135905061052b81610861565b92915050565b60008135905061054081610878565b92915050565b60006020828403121561055857600080fd5b60006105668482850161051c565b91505092915050565b60006020828403121561058157600080fd5b600061058f84828501610531565b91505092915050565b6105a181610807565b82525050565b6105b08161082b565b82525050565b60006105c36026836107f6565b91507f4f776e61626c653a206e6577206f776e657220697320746865207a65726f206160008301527f64647265737300000000000000000000000000000000000000000000000000006020830152604082019050919050565b60006106296013836107f6565b91507f457468207472616e73666572206661696c6564000000000000000000000000006000830152602082019050919050565b60006106696020836107f6565b91507f4f776e61626c653a2063616c6c6572206973206e6f7420746865206f776e65726000830152602082019050919050565b60006106a96000836107eb565b9150600082019050919050565b60006106c36011836107f6565b91507f416c726561647920636f6d706c657465640000000000000000000000000000006000830152602082019050919050565b6106ff81610857565b82525050565b60006107108261069c565b9150819050919050565b600060208201905061072f6000830184610598565b92915050565b600060208201905061074a60008301846105a7565b92915050565b60006020820190508181036000830152610769816105b6565b9050919050565b600060208201905081810360008301526107898161061c565b9050919050565b600060208201905081810360008301526107a98161065c565b9050919050565b600060208201905081810360008301526107c9816106b6565b9050919050565b60006020820190506107e560008301846106f6565b92915050565b600081905092915050565b600082825260208201905092915050565b600061081282610837565b9050919050565b600061082482610837565b9050919050565b60008115159050919050565b600073ffffffffffffffffffffffffffffffffffffffff82169050919050565b6000819050919050565b61086a81610807565b811461087557600080fd5b50565b61088181610819565b811461088c57600080fd5b5056fea264697066735822122017da83a65b9db1f8e58d88a2a1f756cb1d9f161d95ff0678a096d689cd6f3e9864736f6c63430008000033",
  "linkReferences": {},
  "deployedLinkReferences": {}
}