{
  "_format": "hh-sol-artifact-1",
  "contractName": "FundManager",
  "sourceName": "contracts/FundManager.sol",
  "abi": [
    {
      "anonymous": false,
      "inputs": [
        {
          "indexed": true,
          "internalType": "address",
          "name": "previousOwner",
          "type": "address"
        },
        {
          "indexed": true,
          "internalType": "address",
          "name": "newOwner",
          "type": "address"
        }
      ],
      "name": "OwnershipTransferred",
      "type": "event"
    },
    {
      "inputs": [],
      "name": "balance",
      "outputs": [
        {
          "internalType": "uint256",
          "name": "",
          "type": "uint256"
        }
      ],
      "stateMutability": "view",
      "type": "function"
    },
    {
      "inputs": [],
      "name": "complete",
      "outputs": [],
      "stateMutability": "nonpayable",
      "type": "function"
    },
    {
      "inputs": [],
      "name": "completed",
      "outputs": [
        {
          "internalType": "bool",
          "name": "",
          "type": "bool"
        }
      ],
      "stateMutability": "view",
      "type": "function"
    },
    {
      "inputs": [],
      "name": "owner",
      "outputs": [
        {
          "internalType": "address",
          "name": "",
          "type": "address"
        }
      ],
      "stateMutability": "view",
      "type": "function"
    },
    {
      "inputs": [],
      "name": "renounceOwnership",
      "outputs": [],
      "stateMutability": "nonpayable",
      "type": "function"
    },
    {
      "inputs": [
        {
          "internalType": "address",
          "name": "newOwner",
          "type": "address"
        }
      ],
      "name": "transferOwnership",
      "outputs": [],
      "stateMutability": "nonpayable",
      "type": "function"
    },
    {
      "inputs": [
        {
          "internalType": "address payable",
          "name": "_to",
          "type": "address"
        }
      ],
      "name": "withdraw",
      "outputs": [],
      "stateMutability": "nonpayable",
      "type": "function"
    }
  ],
  "bytecode": "0x608060405234801561001057600080fd5b5061002d61002261003260201b60201c565b61003a60201b60201c565b6100fe565b600033905090565b60008060009054906101000a900473ffffffffffffffffffffffffffffffffffffffff169050816000806101000a81548173ffffffffffffffffffffffffffffffffffffffff021916908373ffffffffffffffffffffffffffffffffffffffff1602179055508173ffffffffffffffffffffffffffffffffffffffff168173ffffffffffffffffffffffffffffffffffffffff167f8be0079c531659141344cd1fd0a4f28419497f9722a3daafe3b4186f6b6457e060405160405180910390a35050565b6108848061010d6000396000f3fe608060405234801561001057600080fd5b506004361061007d5760003560e01c80638da5cb5b1161005b5780638da5cb5b146100b25780639d9a7fe9146100d0578063b69ef8a8146100ee578063f2fde38b1461010c5761007d565b806351cff8d914610082578063522e11771461009e578063715018a6146100a8575b600080fd5b61009c6004803603810190610097919061052e565b610128565b005b6100a66101d8565b005b6100b061024b565b005b6100ba6102d3565b6040516100c791906106d9565b60405180910390f35b6100d86102fc565b6040516100e591906106f4565b60405180910390f35b6100f661030f565b604051610103919061078f565b60405180910390f35b61012660048036038101906101219190610505565b610317565b005b60008173ffffffffffffffffffffffffffffffffffffffff164760405161014e906106c4565b60006040518083038185875af1925050503d806000811461018b576040519150601f19603f3d011682016040523d82523d6000602084013e610190565b606091505b50509050806101d4576040517f08c379a00000000000000000000000000000000000000000000000000000000081526004016101cb9061070f565b60405180910390fd5b5050565b60001515600060149054906101000a900460ff1615151461022e576040517f08c379a00000000000000000000000000000000000000000000000000000000081526004016102259061076f565b60405180910390fd5b6001600060146101000a81548160ff021916908315150217905550565b61025361040f565b73ffffffffffffffffffffffffffffffffffffffff166102716102d3565b73ffffffffffffffffffffffffffffffffffffffff16146102c7576040517f08c379a00000000000000000000000000000000000000000000000000000000081526004016102be9061074f565b60405180910390fd5b6102d16000610417565b565b60008060009054906101000a900473ffffffffffffffffffffffffffffffffffffffff16905090565b600060149054906101000a900460ff1681565b600047905090565b61031f61040f565b73ffffffffffffffffffffffffffffffffffffffff1661033d6102d3565b73ffffffffffffffffffffffffffffffffffffffff1614610393576040517f08c379a000000000000000000000000000000000000000000000000000000000815260040161038a9061074f565b60405180910390fd5b600073ffffffffffffffffffffffffffffffffffffffff168173ffffffffffffffffffffffffffffffffffffffff161415610403576040517f08c379a00000000000000000000000000000000000000000000000000000000081526004016103fa9061072f565b60405180910390fd5b61040c81610417565b50565b600033905090565b60008060009054906101000a900473ffffffffffffffffffffffffffffffffffffffff169050816000806101000a81548173ffffffffffffffffffffffffffffffffffffffff021916908373ffffffffffffffffffffffffffffffffffffffff1602179055508173ffffffffffffffffffffffffffffffffffffffff168173ffffffffffffffffffffffffffffffffffffffff167f8be0079c531659141344cd1fd0a4f28419497f9722a3daafe3b4186f6b6457e060405160405180910390a35050565b6000813590506104ea81610820565b92915050565b6000813590506104ff81610837565b92915050565b60006020828403121561051757600080fd5b6000610525848285016104db565b91505092915050565b60006020828403121561054057600080fd5b600061054e848285016104f0565b91505092915050565b610560816107c6565b82525050565b61056f816107ea565b82525050565b60006105826013836107b5565b91507f45746820747261736e666572206661696c6564000000000000000000000000006000830152602082019050919050565b60006105c26026836107b5565b91507f4f776e61626c653a206e6577206f776e657220697320746865207a65726f206160008301527f64647265737300000000000000000000000000000000000000000000000000006020830152604082019050919050565b60006106286020836107b5565b91507f4f776e61626c653a2063616c6c6572206973206e6f7420746865206f776e65726000830152602082019050919050565b60006106686000836107aa565b9150600082019050919050565b60006106826011836107b5565b91507f416c726561647920636f6d706c657465640000000000000000000000000000006000830152602082019050919050565b6106be81610816565b82525050565b60006106cf8261065b565b9150819050919050565b60006020820190506106ee6000830184610557565b92915050565b60006020820190506107096000830184610566565b92915050565b6000602082019050818103600083015261072881610575565b9050919050565b60006020820190508181036000830152610748816105b5565b9050919050565b600060208201905081810360008301526107688161061b565b9050919050565b6000602082019050818103600083015261078881610675565b9050919050565b60006020820190506107a460008301846106b5565b92915050565b600081905092915050565b600082825260208201905092915050565b60006107d1826107f6565b9050919050565b60006107e3826107f6565b9050919050565b60008115159050919050565b600073ffffffffffffffffffffffffffffffffffffffff82169050919050565b6000819050919050565b610829816107c6565b811461083457600080fd5b50565b610840816107d8565b811461084b57600080fd5b5056fea2646970667358221220bce34cbcae0b29d5f126597fc8f21d13d5598f659300b3a9b3167e84d2b179f564736f6c63430008000033",
  "linkReferences": {},
  "deployedLinkReferences": {}
}