{
  "_format": "hh-sol-artifact-1",
  "contractName": "Staker",
  "sourceName": "contracts/Staker.sol",
  "abi": [
    {
      "inputs": [
        {
          "internalType": "address",
          "name": "_fundManagerAddress",
          "type": "address"
        }
      ],
      "stateMutability": "nonpayable",
      "type": "constructor"
    },
    {
      "anonymous": false,
      "inputs": [
        {
          "indexed": false,
          "internalType": "address",
          "name": "staker",
          "type": "address"
        },
        {
          "indexed": false,
          "internalType": "uint256",
          "name": "amount",
          "type": "uint256"
        }
      ],
      "name": "Stake",
      "type": "event"
    },
    {
      "inputs": [
        {
          "internalType": "address",
          "name": "",
          "type": "address"
        }
      ],
      "name": "balances",
      "outputs": [
        {
          "internalType": "uint256",
          "name": "",
          "type": "uint256"
        }
      ],
      "stateMutability": "view",
      "type": "function"
    },
    {
      "inputs": [],
      "name": "deadline",
      "outputs": [
        {
          "internalType": "uint256",
          "name": "",
          "type": "uint256"
        }
      ],
      "stateMutability": "view",
      "type": "function"
    },
    {
      "inputs": [],
      "name": "execute",
      "outputs": [],
      "stateMutability": "nonpayable",
      "type": "function"
    },
    {
      "inputs": [],
      "name": "fundManager",
      "outputs": [
        {
          "internalType": "contract FundManager",
          "name": "",
          "type": "address"
        }
      ],
      "stateMutability": "view",
      "type": "function"
    },
    {
      "inputs": [],
      "name": "stake",
      "outputs": [],
      "stateMutability": "payable",
      "type": "function"
    },
    {
      "inputs": [],
      "name": "threshold",
      "outputs": [
        {
          "internalType": "uint256",
          "name": "",
          "type": "uint256"
        }
      ],
      "stateMutability": "view",
      "type": "function"
    },
    {
      "inputs": [],
      "name": "timeLeft",
      "outputs": [
        {
          "internalType": "uint256",
          "name": "",
          "type": "uint256"
        }
      ],
      "stateMutability": "view",
      "type": "function"
    },
    {
      "inputs": [
        {
          "internalType": "address payable",
          "name": "_to",
          "type": "address"
        }
      ],
      "name": "withdraw",
      "outputs": [],
      "stateMutability": "nonpayable",
      "type": "function"
    },
    {
      "stateMutability": "payable",
      "type": "receive"
    }
  ],
  "bytecode": "0x6080604052671bc16d674ec8000060015560b4426200001f9190620000df565b6002553480156200002f57600080fd5b5060405162000d1038038062000d108339818101604052810190620000559190620000b3565b806000806101000a81548173ffffffffffffffffffffffffffffffffffffffff021916908373ffffffffffffffffffffffffffffffffffffffff16021790555050620001c3565b600081519050620000ad81620001a9565b92915050565b600060208284031215620000c657600080fd5b6000620000d6848285016200009c565b91505092915050565b6000620000ec8262000170565b9150620000f98362000170565b9250827fffffffffffffffffffffffffffffffffffffffffffffffffffffffffffffffff038211156200013157620001306200017a565b5b828201905092915050565b6000620001498262000150565b9050919050565b600073ffffffffffffffffffffffffffffffffffffffff82169050919050565b6000819050919050565b7f4e487b7100000000000000000000000000000000000000000000000000000000600052601160045260246000fd5b620001b4816200013c565b8114620001c057600080fd5b50565b610b3d80620001d36000396000f3fe60806040526004361061007f5760003560e01c806342cde4e81161004e57806342cde4e81461013057806351cff8d91461015b57806361461954146101845780636209ec2d1461019b5761008e565b80631300a6d11461009357806327e235e3146100be57806329dcb0cf146100fb5780633a4b66f1146101265761008e565b3661008e5761008c6101c6565b005b600080fd5b34801561009f57600080fd5b506100a861029b565b6040516100b59190610977565b60405180910390f35b3480156100ca57600080fd5b506100e560048036038101906100e09190610645565b6102c1565b6040516100f29190610977565b60405180910390f35b34801561010757600080fd5b506101106102d9565b60405161011d9190610977565b60405180910390f35b61012e6101c6565b005b34801561013c57600080fd5b506101456102df565b6040516101529190610977565b60405180910390f35b34801561016757600080fd5b50610182600480360381019061017d919061066e565b6102e5565b005b34801561019057600080fd5b506101996104ea565b005b3480156101a757600080fd5b506101b06105f7565b6040516101bd919061089c565b60405180910390f35b600254421061020a576040517f08c379a000000000000000000000000000000000000000000000000000000000815260040161020190610917565b60405180910390fd5b34600360003373ffffffffffffffffffffffffffffffffffffffff1673ffffffffffffffffffffffffffffffffffffffff168152602001908152602001600020600082825461025991906109ae565b925050819055507febedb8b3c678666e7f36970bc8f57abf6d8fa2e828c0da91ea5b75bf68ed101a3334604051610291929190610873565b60405180910390a1565b600060025442116102b957426002546102b49190610a04565b6102bc565b60005b905090565b60036020528060005260406000206000915090505481565b60025481565b60015481565b6002544210610329576040517f08c379a000000000000000000000000000000000000000000000000000000000815260040161032090610917565b60405180910390fd5b600154471061036d576040517f08c379a0000000000000000000000000000000000000000000000000000000008152600401610364906108f7565b60405180910390fd5b6000600360003373ffffffffffffffffffffffffffffffffffffffff1673ffffffffffffffffffffffffffffffffffffffff168152602001908152602001600020549050600081116103f4576040517f08c379a00000000000000000000000000000000000000000000000000000000081526004016103eb906108b7565b60405180910390fd5b6000600360003373ffffffffffffffffffffffffffffffffffffffff1673ffffffffffffffffffffffffffffffffffffffff1681526020019081526020016000208190555060008273ffffffffffffffffffffffffffffffffffffffff168260405161045f9061085e565b60006040518083038185875af1925050503d806000811461049c576040519150601f19603f3d011682016040523d82523d6000602084013e6104a1565b606091505b50509050806104e5576040517f08c379a00000000000000000000000000000000000000000000000000000000081526004016104dc90610957565b60405180910390fd5b505050565b60015447101561052f576040517f08c379a000000000000000000000000000000000000000000000000000000000815260040161052690610937565b60405180910390fd5b600254421015610574576040517f08c379a000000000000000000000000000000000000000000000000000000000815260040161056b906108d7565b60405180910390fd5b60008054906101000a900473ffffffffffffffffffffffffffffffffffffffff1673ffffffffffffffffffffffffffffffffffffffff1663522e1177476040518263ffffffff1660e01b81526004016000604051808303818588803b1580156105dc57600080fd5b505af11580156105f0573d6000803e3d6000fd5b5050505050565b60008054906101000a900473ffffffffffffffffffffffffffffffffffffffff1681565b60008135905061062a81610ad9565b92915050565b60008135905061063f81610af0565b92915050565b60006020828403121561065757600080fd5b60006106658482850161061b565b91505092915050565b60006020828403121561068057600080fd5b600061068e84828501610630565b91505092915050565b6106a081610a38565b82525050565b6106af81610a86565b82525050565b60006106c260128361099d565b91507f4e6f7420656e6f7567682062616c616e636500000000000000000000000000006000830152602082019050919050565b600061070260148361099d565b91507f646561646c696e65206e6f7420657870697265640000000000000000000000006000830152602082019050919050565b600061074260118361099d565b91507f5468726573686f6c6420726561636865640000000000000000000000000000006000830152602082019050919050565b600061078260178361099d565b91507f616c72656164792070617373656420646561646c696e650000000000000000006000830152602082019050919050565b60006107c260158361099d565b91507f5468726573686f6c64206e6f74207265616368656400000000000000000000006000830152602082019050919050565b6000610802600083610992565b9150600082019050919050565b600061081c60168361099d565b91507f4661696c656420746f20747261736e66657220457468000000000000000000006000830152602082019050919050565b61085881610a7c565b82525050565b6000610869826107f5565b9150819050919050565b60006040820190506108886000830185610697565b610895602083018461084f565b9392505050565b60006020820190506108b160008301846106a6565b92915050565b600060208201905081810360008301526108d0816106b5565b9050919050565b600060208201905081810360008301526108f0816106f5565b9050919050565b6000602082019050818103600083015261091081610735565b9050919050565b6000602082019050818103600083015261093081610775565b9050919050565b60006020820190508181036000830152610950816107b5565b9050919050565b600060208201905081810360008301526109708161080f565b9050919050565b600060208201905061098c600083018461084f565b92915050565b600081905092915050565b600082825260208201905092915050565b60006109b982610a7c565b91506109c483610a7c565b9250827fffffffffffffffffffffffffffffffffffffffffffffffffffffffffffffffff038211156109f9576109f8610aaa565b5b828201905092915050565b6000610a0f82610a7c565b9150610a1a83610a7c565b925082821015610a2d57610a2c610aaa565b5b828203905092915050565b6000610a4382610a5c565b9050919050565b6000610a5582610a5c565b9050919050565b600073ffffffffffffffffffffffffffffffffffffffff82169050919050565b6000819050919050565b6000610a9182610a98565b9050919050565b6000610aa382610a5c565b9050919050565b7f4e487b7100000000000000000000000000000000000000000000000000000000600052601160045260246000fd5b610ae281610a38565b8114610aed57600080fd5b50565b610af981610a4a565b8114610b0457600080fd5b5056fea2646970667358221220ae9519cd4db4172cd14a5ab8308be95f2a1bf98e5f9704954d4f98d47fb2aa5664736f6c63430008000033",
  "linkReferences": {},
  "deployedLinkReferences": {}
}