{
  "_format": "hh-sol-artifact-1",
  "contractName": "Staker",
  "sourceName": "contracts/Staker.sol",
  "abi": [
    {
      "inputs": [
        {
          "internalType": "address",
          "name": "_fundManagerAddress",
          "type": "address"
        }
      ],
      "stateMutability": "nonpayable",
      "type": "constructor"
    },
    {
      "anonymous": false,
      "inputs": [
        {
          "indexed": false,
          "internalType": "address",
          "name": "staker",
          "type": "address"
        },
        {
          "indexed": false,
          "internalType": "uint256",
          "name": "amount",
          "type": "uint256"
        }
      ],
      "name": "Stake",
      "type": "event"
    },
    {
      "inputs": [
        {
          "internalType": "address",
          "name": "",
          "type": "address"
        }
      ],
      "name": "balances",
      "outputs": [
        {
          "internalType": "uint256",
          "name": "",
          "type": "uint256"
        }
      ],
      "stateMutability": "view",
      "type": "function"
    },
    {
      "inputs": [],
      "name": "deadline",
      "outputs": [
        {
          "internalType": "uint256",
          "name": "",
          "type": "uint256"
        }
      ],
      "stateMutability": "view",
      "type": "function"
    },
    {
      "inputs": [],
      "name": "execute",
      "outputs": [],
      "stateMutability": "nonpayable",
      "type": "function"
    },
    {
      "inputs": [],
      "name": "fundManager",
      "outputs": [
        {
          "internalType": "contract FundManager",
          "name": "",
          "type": "address"
        }
      ],
      "stateMutability": "view",
      "type": "function"
    },
    {
      "inputs": [],
      "name": "stake",
      "outputs": [],
      "stateMutability": "payable",
      "type": "function"
    },
    {
      "inputs": [],
      "name": "threshold",
      "outputs": [
        {
          "internalType": "uint256",
          "name": "",
          "type": "uint256"
        }
      ],
      "stateMutability": "view",
      "type": "function"
    },
    {
      "inputs": [],
      "name": "timeLeft",
      "outputs": [
        {
          "internalType": "uint256",
          "name": "",
          "type": "uint256"
        }
      ],
      "stateMutability": "view",
      "type": "function"
    },
    {
      "inputs": [
        {
          "internalType": "address payable",
          "name": "_to",
          "type": "address"
        }
      ],
      "name": "withdraw",
      "outputs": [],
      "stateMutability": "nonpayable",
      "type": "function"
    },
    {
      "stateMutability": "payable",
      "type": "receive"
    }
  ],
  "bytecode": "0x608060405266b1a2bc2ec50000600155630107ac004261001f91906100d6565b60025534801561002e57600080fd5b5060405162000c5638038062000c56833981810160405281019061005291906100ad565b806000806101000a81548173ffffffffffffffffffffffffffffffffffffffff021916908373ffffffffffffffffffffffffffffffffffffffff160217905550506101ae565b6000815190506100a781610197565b92915050565b6000602082840312156100bf57600080fd5b60006100cd84828501610098565b91505092915050565b60006100e18261015e565b91506100ec8361015e565b9250827fffffffffffffffffffffffffffffffffffffffffffffffffffffffffffffffff0382111561012157610120610168565b5b828201905092915050565b60006101378261013e565b9050919050565b600073ffffffffffffffffffffffffffffffffffffffff82169050919050565b6000819050919050565b7f4e487b7100000000000000000000000000000000000000000000000000000000600052601160045260246000fd5b6101a08161012c565b81146101ab57600080fd5b50565b610a9880620001be6000396000f3fe60806040526004361061007f5760003560e01c806342cde4e81161004e57806342cde4e81461013057806351cff8d91461015b57806361461954146101845780636209ec2d1461019b5761008e565b80631300a6d11461009357806327e235e3146100be57806329dcb0cf146100fb5780633a4b66f1146101265761008e565b3661008e5761008c6101c6565b005b600080fd5b34801561009f57600080fd5b506100a861029b565b6040516100b591906108d2565b60405180910390f35b3480156100ca57600080fd5b506100e560048036038101906100e09190610600565b6102c1565b6040516100f291906108d2565b60405180910390f35b34801561010757600080fd5b506101106102d9565b60405161011d91906108d2565b60405180910390f35b61012e6101c6565b005b34801561013c57600080fd5b506101456102df565b60405161015291906108d2565b60405180910390f35b34801561016757600080fd5b50610182600480360381019061017d9190610629565b6102e5565b005b34801561019057600080fd5b506101996104ea565b005b3480156101a757600080fd5b506101b06105b2565b6040516101bd9190610817565b60405180910390f35b600254421061020a576040517f08c379a000000000000000000000000000000000000000000000000000000000815260040161020190610872565b60405180910390fd5b34600360003373ffffffffffffffffffffffffffffffffffffffff1673ffffffffffffffffffffffffffffffffffffffff16815260200190815260200160002060008282546102599190610909565b925050819055507febedb8b3c678666e7f36970bc8f57abf6d8fa2e828c0da91ea5b75bf68ed101a33346040516102919291906107ee565b60405180910390a1565b600060025442116102b957426002546102b4919061095f565b6102bc565b60005b905090565b60036020528060005260406000206000915090505481565b60025481565b60015481565b6002544210610329576040517f08c379a000000000000000000000000000000000000000000000000000000000815260040161032090610872565b60405180910390fd5b600154471061036d576040517f08c379a000000000000000000000000000000000000000000000000000000000815260040161036490610852565b60405180910390fd5b6000600360003373ffffffffffffffffffffffffffffffffffffffff1673ffffffffffffffffffffffffffffffffffffffff168152602001908152602001600020549050600081116103f4576040517f08c379a00000000000000000000000000000000000000000000000000000000081526004016103eb90610832565b60405180910390fd5b6000600360003373ffffffffffffffffffffffffffffffffffffffff1673ffffffffffffffffffffffffffffffffffffffff1681526020019081526020016000208190555060008273ffffffffffffffffffffffffffffffffffffffff168260405161045f906107d9565b60006040518083038185875af1925050503d806000811461049c576040519150601f19603f3d011682016040523d82523d6000602084013e6104a1565b606091505b50509050806104e5576040517f08c379a00000000000000000000000000000000000000000000000000000000081526004016104dc906108b2565b60405180910390fd5b505050565b60015447101561052f576040517f08c379a000000000000000000000000000000000000000000000000000000000815260040161052690610892565b60405180910390fd5b60008054906101000a900473ffffffffffffffffffffffffffffffffffffffff1673ffffffffffffffffffffffffffffffffffffffff1663522e1177476040518263ffffffff1660e01b81526004016000604051808303818588803b15801561059757600080fd5b505af11580156105ab573d6000803e3d6000fd5b5050505050565b60008054906101000a900473ffffffffffffffffffffffffffffffffffffffff1681565b6000813590506105e581610a34565b92915050565b6000813590506105fa81610a4b565b92915050565b60006020828403121561061257600080fd5b6000610620848285016105d6565b91505092915050565b60006020828403121561063b57600080fd5b6000610649848285016105eb565b91505092915050565b61065b81610993565b82525050565b61066a816109e1565b82525050565b600061067d6012836108f8565b91507f4e6f7420656e6f7567682062616c616e636500000000000000000000000000006000830152602082019050919050565b60006106bd6011836108f8565b91507f5468726573686f6c6420726561636865640000000000000000000000000000006000830152602082019050919050565b60006106fd6017836108f8565b91507f616c72656164792070617373656420646561646c696e650000000000000000006000830152602082019050919050565b600061073d6015836108f8565b91507f5468726573686f6c64206e6f74207265616368656400000000000000000000006000830152602082019050919050565b600061077d6000836108ed565b9150600082019050919050565b60006107976016836108f8565b91507f4661696c656420746f20747261736e66657220457468000000000000000000006000830152602082019050919050565b6107d3816109d7565b82525050565b60006107e482610770565b9150819050919050565b60006040820190506108036000830185610652565b61081060208301846107ca565b9392505050565b600060208201905061082c6000830184610661565b92915050565b6000602082019050818103600083015261084b81610670565b9050919050565b6000602082019050818103600083015261086b816106b0565b9050919050565b6000602082019050818103600083015261088b816106f0565b9050919050565b600060208201905081810360008301526108ab81610730565b9050919050565b600060208201905081810360008301526108cb8161078a565b9050919050565b60006020820190506108e760008301846107ca565b92915050565b600081905092915050565b600082825260208201905092915050565b6000610914826109d7565b915061091f836109d7565b9250827fffffffffffffffffffffffffffffffffffffffffffffffffffffffffffffffff0382111561095457610953610a05565b5b828201905092915050565b600061096a826109d7565b9150610975836109d7565b92508282101561098857610987610a05565b5b828203905092915050565b600061099e826109b7565b9050919050565b60006109b0826109b7565b9050919050565b600073ffffffffffffffffffffffffffffffffffffffff82169050919050565b6000819050919050565b60006109ec826109f3565b9050919050565b60006109fe826109b7565b9050919050565b7f4e487b7100000000000000000000000000000000000000000000000000000000600052601160045260246000fd5b610a3d81610993565b8114610a4857600080fd5b50565b610a54816109a5565b8114610a5f57600080fd5b5056fea2646970667358221220486f179f9bd4b9b56b1b95c8be4233e4fffca61c75567f395afae88effe8d2d064736f6c63430008000033",
  "linkReferences": {},
  "deployedLinkReferences": {}
}