{
  "_format": "hh-sol-artifact-1",
  "contractName": "Staker",
  "sourceName": "contracts/Staker.sol",
  "abi": [
    {
      "inputs": [
        {
          "internalType": "address",
          "name": "_fundManagerAddress",
          "type": "address"
        }
      ],
      "stateMutability": "nonpayable",
      "type": "constructor"
    },
    {
      "anonymous": false,
      "inputs": [
        {
          "indexed": false,
          "internalType": "address",
          "name": "staker",
          "type": "address"
        },
        {
          "indexed": false,
          "internalType": "uint256",
          "name": "amount",
          "type": "uint256"
        }
      ],
      "name": "Stake",
      "type": "event"
    },
    {
      "inputs": [
        {
          "internalType": "address",
          "name": "",
          "type": "address"
        }
      ],
      "name": "balances",
      "outputs": [
        {
          "internalType": "uint256",
          "name": "",
          "type": "uint256"
        }
      ],
      "stateMutability": "view",
      "type": "function"
    },
    {
      "inputs": [],
      "name": "deadline",
      "outputs": [
        {
          "internalType": "uint256",
          "name": "",
          "type": "uint256"
        }
      ],
      "stateMutability": "view",
      "type": "function"
    },
    {
      "inputs": [],
      "name": "execute",
      "outputs": [],
      "stateMutability": "nonpayable",
      "type": "function"
    },
    {
      "inputs": [],
      "name": "fundManager",
      "outputs": [
        {
          "internalType": "contract FundManager",
          "name": "",
          "type": "address"
        }
      ],
      "stateMutability": "view",
      "type": "function"
    },
    {
      "inputs": [],
      "name": "stake",
      "outputs": [],
      "stateMutability": "payable",
      "type": "function"
    },
    {
      "inputs": [
        {
          "internalType": "address",
          "name": "_account",
          "type": "address"
        }
      ],
      "name": "stakedBalance",
      "outputs": [
        {
          "internalType": "uint256",
          "name": "",
          "type": "uint256"
        }
      ],
      "stateMutability": "view",
      "type": "function"
    },
    {
      "inputs": [],
      "name": "threshold",
      "outputs": [
        {
          "internalType": "uint256",
          "name": "",
          "type": "uint256"
        }
      ],
      "stateMutability": "view",
      "type": "function"
    },
    {
      "inputs": [],
      "name": "timeLeft",
      "outputs": [
        {
          "internalType": "uint256",
          "name": "",
          "type": "uint256"
        }
      ],
      "stateMutability": "view",
      "type": "function"
    },
    {
      "inputs": [
        {
          "internalType": "address payable",
          "name": "_to",
          "type": "address"
        }
      ],
      "name": "withdraw",
      "outputs": [],
      "stateMutability": "nonpayable",
      "type": "function"
    },
    {
      "stateMutability": "payable",
      "type": "receive"
    }
  ],
  "bytecode": "0x6080604052671bc16d674ec80000600155612a3042620000209190620000e0565b6002553480156200003057600080fd5b5060405162000da238038062000da28339818101604052810190620000569190620000b4565b806000806101000a81548173ffffffffffffffffffffffffffffffffffffffff021916908373ffffffffffffffffffffffffffffffffffffffff16021790555050620001c4565b600081519050620000ae81620001aa565b92915050565b600060208284031215620000c757600080fd5b6000620000d7848285016200009d565b91505092915050565b6000620000ed8262000171565b9150620000fa8362000171565b9250827fffffffffffffffffffffffffffffffffffffffffffffffffffffffffffffffff038211156200013257620001316200017b565b5b828201905092915050565b60006200014a8262000151565b9050919050565b600073ffffffffffffffffffffffffffffffffffffffff82169050919050565b6000819050919050565b7f4e487b7100000000000000000000000000000000000000000000000000000000600052601160045260246000fd5b620001b5816200013d565b8114620001c157600080fd5b50565b610bce80620001d46000396000f3fe60806040526004361061008a5760003560e01c806342cde4e81161005957806342cde4e81461013b57806351cff8d914610166578063602172671461018f57806361461954146101cc5780636209ec2d146101e357610099565b80631300a6d11461009e57806327e235e3146100c957806329dcb0cf146101065780633a4b66f11461013157610099565b366100995761009761020e565b005b600080fd5b3480156100aa57600080fd5b506100b36102e3565b6040516100c09190610a08565b60405180910390f35b3480156100d557600080fd5b506100f060048036038101906100eb91906106d6565b610309565b6040516100fd9190610a08565b60405180910390f35b34801561011257600080fd5b5061011b610321565b6040516101289190610a08565b60405180910390f35b61013961020e565b005b34801561014757600080fd5b50610150610327565b60405161015d9190610a08565b60405180910390f35b34801561017257600080fd5b5061018d600480360381019061018891906106ff565b61032d565b005b34801561019b57600080fd5b506101b660048036038101906101b191906106d6565b610532565b6040516101c39190610a08565b60405180910390f35b3480156101d857600080fd5b506101e161057b565b005b3480156101ef57600080fd5b506101f8610688565b604051610205919061092d565b60405180910390f35b6002544210610252576040517f08c379a0000000000000000000000000000000000000000000000000000000008152600401610249906109a8565b60405180910390fd5b34600360003373ffffffffffffffffffffffffffffffffffffffff1673ffffffffffffffffffffffffffffffffffffffff16815260200190815260200160002060008282546102a19190610a3f565b925050819055507febedb8b3c678666e7f36970bc8f57abf6d8fa2e828c0da91ea5b75bf68ed101a33346040516102d9929190610904565b60405180910390a1565b6000600254421161030157426002546102fc9190610a95565b610304565b60005b905090565b60036020528060005260406000206000915090505481565b60025481565b60015481565b6002544210610371576040517f08c379a0000000000000000000000000000000000000000000000000000000008152600401610368906109a8565b60405180910390fd5b60015447106103b5576040517f08c379a00000000000000000000000000000000000000000000000000000000081526004016103ac90610988565b60405180910390fd5b6000600360003373ffffffffffffffffffffffffffffffffffffffff1673ffffffffffffffffffffffffffffffffffffffff1681526020019081526020016000205490506000811161043c576040517f08c379a000000000000000000000000000000000000000000000000000000000815260040161043390610948565b60405180910390fd5b6000600360003373ffffffffffffffffffffffffffffffffffffffff1673ffffffffffffffffffffffffffffffffffffffff1681526020019081526020016000208190555060008273ffffffffffffffffffffffffffffffffffffffff16826040516104a7906108ef565b60006040518083038185875af1925050503d80600081146104e4576040519150601f19603f3d011682016040523d82523d6000602084013e6104e9565b606091505b505090508061052d576040517f08c379a0000000000000000000000000000000000000000000000000000000008152600401610524906109e8565b60405180910390fd5b505050565b6000600360008373ffffffffffffffffffffffffffffffffffffffff1673ffffffffffffffffffffffffffffffffffffffff168152602001908152602001600020549050919050565b6001544710156105c0576040517f08c379a00000000000000000000000000000000000000000000000000000000081526004016105b7906109c8565b60405180910390fd5b600254421015610605576040517f08c379a00000000000000000000000000000000000000000000000000000000081526004016105fc90610968565b60405180910390fd5b60008054906101000a900473ffffffffffffffffffffffffffffffffffffffff1673ffffffffffffffffffffffffffffffffffffffff1663522e1177476040518263ffffffff1660e01b81526004016000604051808303818588803b15801561066d57600080fd5b505af1158015610681573d6000803e3d6000fd5b5050505050565b60008054906101000a900473ffffffffffffffffffffffffffffffffffffffff1681565b6000813590506106bb81610b6a565b92915050565b6000813590506106d081610b81565b92915050565b6000602082840312156106e857600080fd5b60006106f6848285016106ac565b91505092915050565b60006020828403121561071157600080fd5b600061071f848285016106c1565b91505092915050565b61073181610ac9565b82525050565b61074081610b17565b82525050565b6000610753601283610a2e565b91507f4e6f7420656e6f7567682062616c616e636500000000000000000000000000006000830152602082019050919050565b6000610793601483610a2e565b91507f646561646c696e65206e6f7420657870697265640000000000000000000000006000830152602082019050919050565b60006107d3601183610a2e565b91507f5468726573686f6c6420726561636865640000000000000000000000000000006000830152602082019050919050565b6000610813601783610a2e565b91507f616c72656164792070617373656420646561646c696e650000000000000000006000830152602082019050919050565b6000610853601583610a2e565b91507f5468726573686f6c64206e6f74207265616368656400000000000000000000006000830152602082019050919050565b6000610893600083610a23565b9150600082019050919050565b60006108ad601683610a2e565b91507f4661696c656420746f20747261736e66657220457468000000000000000000006000830152602082019050919050565b6108e981610b0d565b82525050565b60006108fa82610886565b9150819050919050565b60006040820190506109196000830185610728565b61092660208301846108e0565b9392505050565b60006020820190506109426000830184610737565b92915050565b6000602082019050818103600083015261096181610746565b9050919050565b6000602082019050818103600083015261098181610786565b9050919050565b600060208201905081810360008301526109a1816107c6565b9050919050565b600060208201905081810360008301526109c181610806565b9050919050565b600060208201905081810360008301526109e181610846565b9050919050565b60006020820190508181036000830152610a01816108a0565b9050919050565b6000602082019050610a1d60008301846108e0565b92915050565b600081905092915050565b600082825260208201905092915050565b6000610a4a82610b0d565b9150610a5583610b0d565b9250827fffffffffffffffffffffffffffffffffffffffffffffffffffffffffffffffff03821115610a8a57610a89610b3b565b5b828201905092915050565b6000610aa082610b0d565b9150610aab83610b0d565b925082821015610abe57610abd610b3b565b5b828203905092915050565b6000610ad482610aed565b9050919050565b6000610ae682610aed565b9050919050565b600073ffffffffffffffffffffffffffffffffffffffff82169050919050565b6000819050919050565b6000610b2282610b29565b9050919050565b6000610b3482610aed565b9050919050565b7f4e487b7100000000000000000000000000000000000000000000000000000000600052601160045260246000fd5b610b7381610ac9565b8114610b7e57600080fd5b50565b610b8a81610adb565b8114610b9557600080fd5b5056fea2646970667358221220a455b629770f56cd91ec7530d7d10a3f268a256cfe55d17aa50a9e4fd61541d864736f6c63430008000033",
  "linkReferences": {},
  "deployedLinkReferences": {}
}