{
  "_format": "hh-sol-artifact-1",
  "contractName": "Staker",
  "sourceName": "contracts/Staker.sol",
  "abi": [
    {
      "inputs": [
        {
          "internalType": "address",
          "name": "_fundManagerAddress",
          "type": "address"
        }
      ],
      "stateMutability": "nonpayable",
      "type": "constructor"
    },
    {
      "anonymous": false,
      "inputs": [
        {
          "indexed": false,
          "internalType": "address",
          "name": "staker",
          "type": "address"
        },
        {
          "indexed": false,
          "internalType": "uint256",
          "name": "amount",
          "type": "uint256"
        }
      ],
      "name": "Stake",
      "type": "event"
    },
    {
      "inputs": [
        {
          "internalType": "address",
          "name": "",
          "type": "address"
        }
      ],
      "name": "balances",
      "outputs": [
        {
          "internalType": "uint256",
          "name": "",
          "type": "uint256"
        }
      ],
      "stateMutability": "view",
      "type": "function"
    },
    {
      "inputs": [],
      "name": "deadline",
      "outputs": [
        {
          "internalType": "uint256",
          "name": "",
          "type": "uint256"
        }
      ],
      "stateMutability": "view",
      "type": "function"
    },
    {
      "inputs": [],
      "name": "execute",
      "outputs": [],
      "stateMutability": "nonpayable",
      "type": "function"
    },
    {
      "inputs": [],
      "name": "fundManager",
      "outputs": [
        {
          "internalType": "contract FundManager",
          "name": "",
          "type": "address"
        }
      ],
      "stateMutability": "view",
      "type": "function"
    },
    {
      "inputs": [],
      "name": "stake",
      "outputs": [],
      "stateMutability": "payable",
      "type": "function"
    },
    {
      "inputs": [],
      "name": "stakedBalance",
      "outputs": [
        {
          "internalType": "uint256",
          "name": "",
          "type": "uint256"
        }
      ],
      "stateMutability": "view",
      "type": "function"
    },
    {
      "inputs": [],
      "name": "threshold",
      "outputs": [
        {
          "internalType": "uint256",
          "name": "",
          "type": "uint256"
        }
      ],
      "stateMutability": "view",
      "type": "function"
    },
    {
      "inputs": [],
      "name": "timeLeft",
      "outputs": [
        {
          "internalType": "uint256",
          "name": "",
          "type": "uint256"
        }
      ],
      "stateMutability": "view",
      "type": "function"
    },
    {
      "inputs": [
        {
          "internalType": "address payable",
          "name": "_to",
          "type": "address"
        }
      ],
      "name": "withdraw",
      "outputs": [],
      "stateMutability": "nonpayable",
      "type": "function"
    },
    {
      "stateMutability": "payable",
      "type": "receive"
    }
  ],
  "bytecode": "0x6080604052671bc16d674ec80000600155612a3042620000209190620000e0565b6002553480156200003057600080fd5b5060405162000d8e38038062000d8e8339818101604052810190620000569190620000b4565b806000806101000a81548173ffffffffffffffffffffffffffffffffffffffff021916908373ffffffffffffffffffffffffffffffffffffffff16021790555050620001c4565b600081519050620000ae81620001aa565b92915050565b600060208284031215620000c757600080fd5b6000620000d7848285016200009d565b91505092915050565b6000620000ed8262000171565b9150620000fa8362000171565b9250827fffffffffffffffffffffffffffffffffffffffffffffffffffffffffffffffff038211156200013257620001316200017b565b5b828201905092915050565b60006200014a8262000151565b9050919050565b600073ffffffffffffffffffffffffffffffffffffffff82169050919050565b6000819050919050565b7f4e487b7100000000000000000000000000000000000000000000000000000000600052601160045260246000fd5b620001b5816200013d565b8114620001c157600080fd5b50565b610bba80620001d46000396000f3fe60806040526004361061008a5760003560e01c806342cde4e81161005957806342cde4e81461013b57806351cff8d9146101665780635b9f00161461018f57806361461954146101ba5780636209ec2d146101d157610099565b80631300a6d11461009e57806327e235e3146100c957806329dcb0cf146101065780633a4b66f11461013157610099565b36610099576100976101fc565b005b600080fd5b3480156100aa57600080fd5b506100b36102d1565b6040516100c091906109f4565b60405180910390f35b3480156100d557600080fd5b506100f060048036038101906100eb91906106c2565b6102f7565b6040516100fd91906109f4565b60405180910390f35b34801561011257600080fd5b5061011b61030f565b60405161012891906109f4565b60405180910390f35b6101396101fc565b005b34801561014757600080fd5b50610150610315565b60405161015d91906109f4565b60405180910390f35b34801561017257600080fd5b5061018d600480360381019061018891906106eb565b61031b565b005b34801561019b57600080fd5b506101a4610520565b6040516101b191906109f4565b60405180910390f35b3480156101c657600080fd5b506101cf610567565b005b3480156101dd57600080fd5b506101e6610674565b6040516101f39190610919565b60405180910390f35b6002544210610240576040517f08c379a000000000000000000000000000000000000000000000000000000000815260040161023790610994565b60405180910390fd5b34600360003373ffffffffffffffffffffffffffffffffffffffff1673ffffffffffffffffffffffffffffffffffffffff168152602001908152602001600020600082825461028f9190610a2b565b925050819055507febedb8b3c678666e7f36970bc8f57abf6d8fa2e828c0da91ea5b75bf68ed101a33346040516102c79291906108f0565b60405180910390a1565b600060025442116102ef57426002546102ea9190610a81565b6102f2565b60005b905090565b60036020528060005260406000206000915090505481565b60025481565b60015481565b600254421061035f576040517f08c379a000000000000000000000000000000000000000000000000000000000815260040161035690610994565b60405180910390fd5b60015447106103a3576040517f08c379a000000000000000000000000000000000000000000000000000000000815260040161039a90610974565b60405180910390fd5b6000600360003373ffffffffffffffffffffffffffffffffffffffff1673ffffffffffffffffffffffffffffffffffffffff1681526020019081526020016000205490506000811161042a576040517f08c379a000000000000000000000000000000000000000000000000000000000815260040161042190610934565b60405180910390fd5b6000600360003373ffffffffffffffffffffffffffffffffffffffff1673ffffffffffffffffffffffffffffffffffffffff1681526020019081526020016000208190555060008273ffffffffffffffffffffffffffffffffffffffff1682604051610495906108db565b60006040518083038185875af1925050503d80600081146104d2576040519150601f19603f3d011682016040523d82523d6000602084013e6104d7565b606091505b505090508061051b576040517f08c379a0000000000000000000000000000000000000000000000000000000008152600401610512906109d4565b60405180910390fd5b505050565b6000600360003373ffffffffffffffffffffffffffffffffffffffff1673ffffffffffffffffffffffffffffffffffffffff16815260200190815260200160002054905090565b6001544710156105ac576040517f08c379a00000000000000000000000000000000000000000000000000000000081526004016105a3906109b4565b60405180910390fd5b6002544210156105f1576040517f08c379a00000000000000000000000000000000000000000000000000000000081526004016105e890610954565b60405180910390fd5b60008054906101000a900473ffffffffffffffffffffffffffffffffffffffff1673ffffffffffffffffffffffffffffffffffffffff1663522e1177476040518263ffffffff1660e01b81526004016000604051808303818588803b15801561065957600080fd5b505af115801561066d573d6000803e3d6000fd5b5050505050565b60008054906101000a900473ffffffffffffffffffffffffffffffffffffffff1681565b6000813590506106a781610b56565b92915050565b6000813590506106bc81610b6d565b92915050565b6000602082840312156106d457600080fd5b60006106e284828501610698565b91505092915050565b6000602082840312156106fd57600080fd5b600061070b848285016106ad565b91505092915050565b61071d81610ab5565b82525050565b61072c81610b03565b82525050565b600061073f601283610a1a565b91507f4e6f7420656e6f7567682062616c616e636500000000000000000000000000006000830152602082019050919050565b600061077f601483610a1a565b91507f646561646c696e65206e6f7420657870697265640000000000000000000000006000830152602082019050919050565b60006107bf601183610a1a565b91507f5468726573686f6c6420726561636865640000000000000000000000000000006000830152602082019050919050565b60006107ff601783610a1a565b91507f616c72656164792070617373656420646561646c696e650000000000000000006000830152602082019050919050565b600061083f601583610a1a565b91507f5468726573686f6c64206e6f74207265616368656400000000000000000000006000830152602082019050919050565b600061087f600083610a0f565b9150600082019050919050565b6000610899601683610a1a565b91507f4661696c656420746f20747261736e66657220457468000000000000000000006000830152602082019050919050565b6108d581610af9565b82525050565b60006108e682610872565b9150819050919050565b60006040820190506109056000830185610714565b61091260208301846108cc565b9392505050565b600060208201905061092e6000830184610723565b92915050565b6000602082019050818103600083015261094d81610732565b9050919050565b6000602082019050818103600083015261096d81610772565b9050919050565b6000602082019050818103600083015261098d816107b2565b9050919050565b600060208201905081810360008301526109ad816107f2565b9050919050565b600060208201905081810360008301526109cd81610832565b9050919050565b600060208201905081810360008301526109ed8161088c565b9050919050565b6000602082019050610a0960008301846108cc565b92915050565b600081905092915050565b600082825260208201905092915050565b6000610a3682610af9565b9150610a4183610af9565b9250827fffffffffffffffffffffffffffffffffffffffffffffffffffffffffffffffff03821115610a7657610a75610b27565b5b828201905092915050565b6000610a8c82610af9565b9150610a9783610af9565b925082821015610aaa57610aa9610b27565b5b828203905092915050565b6000610ac082610ad9565b9050919050565b6000610ad282610ad9565b9050919050565b600073ffffffffffffffffffffffffffffffffffffffff82169050919050565b6000819050919050565b6000610b0e82610b15565b9050919050565b6000610b2082610ad9565b9050919050565b7f4e487b7100000000000000000000000000000000000000000000000000000000600052601160045260246000fd5b610b5f81610ab5565b8114610b6a57600080fd5b50565b610b7681610ac7565b8114610b8157600080fd5b5056fea2646970667358221220f041de94922cfcf5ed5f541a0a1a9d79ebcc230bb81ed64df4cb4d05bfb74a0364736f6c63430008000033",
  "linkReferences": {},
  "deployedLinkReferences": {}
}