{
  "_format": "hh-sol-artifact-1",
  "contractName": "Vendor",
  "sourceName": "contracts/Vendor.sol",
  "abi": [
    {
      "inputs": [
        {
          "internalType": "address",
          "name": "_tokenAddress",
          "type": "address"
        }
      ],
      "stateMutability": "nonpayable",
      "type": "constructor"
    },
    {
      "anonymous": false,
      "inputs": [
        {
          "indexed": false,
          "internalType": "address",
          "name": "sender",
          "type": "address"
        },
        {
          "indexed": false,
          "internalType": "uint256",
          "name": "amount",
          "type": "uint256"
        },
        {
          "indexed": false,
          "internalType": "uint256",
          "name": "tokensPerEth",
          "type": "uint256"
        }
      ],
      "name": "BuyTokens",
      "type": "event"
    },
    {
      "anonymous": false,
      "inputs": [
        {
          "indexed": true,
          "internalType": "address",
          "name": "previousOwner",
          "type": "address"
        },
        {
          "indexed": true,
          "internalType": "address",
          "name": "newOwner",
          "type": "address"
        }
      ],
      "name": "OwnershipTransferred",
      "type": "event"
    },
    {
      "inputs": [],
      "name": "balance",
      "outputs": [
        {
          "internalType": "uint256",
          "name": "",
          "type": "uint256"
        }
      ],
      "stateMutability": "view",
      "type": "function"
    },
    {
      "inputs": [],
      "name": "buyTokens",
      "outputs": [],
      "stateMutability": "payable",
      "type": "function"
    },
    {
      "inputs": [],
      "name": "owner",
      "outputs": [
        {
          "internalType": "address",
          "name": "",
          "type": "address"
        }
      ],
      "stateMutability": "view",
      "type": "function"
    },
    {
      "inputs": [],
      "name": "renounceOwnership",
      "outputs": [],
      "stateMutability": "nonpayable",
      "type": "function"
    },
    {
      "inputs": [],
      "name": "token",
      "outputs": [
        {
          "internalType": "contract Token",
          "name": "",
          "type": "address"
        }
      ],
      "stateMutability": "view",
      "type": "function"
    },
    {
      "inputs": [],
      "name": "tokensPerEth",
      "outputs": [
        {
          "internalType": "uint256",
          "name": "",
          "type": "uint256"
        }
      ],
      "stateMutability": "view",
      "type": "function"
    },
    {
      "inputs": [
        {
          "internalType": "address",
          "name": "newOwner",
          "type": "address"
        }
      ],
      "name": "transferOwnership",
      "outputs": [],
      "stateMutability": "nonpayable",
      "type": "function"
    },
    {
      "inputs": [],
      "name": "withdraw",
      "outputs": [],
      "stateMutability": "nonpayable",
      "type": "function"
    }
  ],
  "bytecode": "0x608060405234801561001057600080fd5b50604051610e6c380380610e6c83398181016040528101906100329190610176565b61004e61004361009560201b60201c565b61009d60201b60201c565b80600160006101000a81548173ffffffffffffffffffffffffffffffffffffffff021916908373ffffffffffffffffffffffffffffffffffffffff160217905550506101e8565b600033905090565b60008060009054906101000a900473ffffffffffffffffffffffffffffffffffffffff169050816000806101000a81548173ffffffffffffffffffffffffffffffffffffffff021916908373ffffffffffffffffffffffffffffffffffffffff1602179055508173ffffffffffffffffffffffffffffffffffffffff168173ffffffffffffffffffffffffffffffffffffffff167f8be0079c531659141344cd1fd0a4f28419497f9722a3daafe3b4186f6b6457e060405160405180910390a35050565b600081519050610170816101d1565b92915050565b60006020828403121561018857600080fd5b600061019684828501610161565b91505092915050565b60006101aa826101b1565b9050919050565b600073ffffffffffffffffffffffffffffffffffffffff82169050919050565b6101da8161019f565b81146101e557600080fd5b50565b610c75806101f76000396000f3fe60806040526004361061007b5760003560e01c8063cbdd69b51161004e578063cbdd69b514610104578063d0febe4c1461012f578063f2fde38b14610139578063fc0c546a146101625761007b565b80633ccfd60b14610080578063715018a6146100975780638da5cb5b146100ae578063b69ef8a8146100d9575b600080fd5b34801561008c57600080fd5b5061009561018d565b005b3480156100a357600080fd5b506100ac610258565b005b3480156100ba57600080fd5b506100c36102e0565b6040516100d09190610963565b60405180910390f35b3480156100e557600080fd5b506100ee610309565b6040516100fb9190610a79565b60405180910390f35b34801561011057600080fd5b50610119610311565b6040516101269190610a79565b60405180910390f35b610137610316565b005b34801561014557600080fd5b50610160600480360381019061015b9190610795565b61056c565b005b34801561016e57600080fd5b50610177610664565b60405161018491906109de565b60405180910390f35b61019561068a565b73ffffffffffffffffffffffffffffffffffffffff166101b36102e0565b73ffffffffffffffffffffffffffffffffffffffff1614610209576040517f08c379a000000000000000000000000000000000000000000000000000000000815260040161020090610a19565b60405180910390fd5b60004790503373ffffffffffffffffffffffffffffffffffffffff166108fc829081150290604051600060405180830381858888f19350505050158015610254573d6000803e3d6000fd5b5050565b61026061068a565b73ffffffffffffffffffffffffffffffffffffffff1661027e6102e0565b73ffffffffffffffffffffffffffffffffffffffff16146102d4576040517f08c379a00000000000000000000000000000000000000000000000000000000081526004016102cb90610a19565b60405180910390fd5b6102de6000610692565b565b60008060009054906101000a900473ffffffffffffffffffffffffffffffffffffffff16905090565b600047905090565b600a81565b600034141561035a576040517f08c379a000000000000000000000000000000000000000000000000000000000815260040161035190610a59565b60405180910390fd5b600160009054906101000a900473ffffffffffffffffffffffffffffffffffffffff1673ffffffffffffffffffffffffffffffffffffffff166370a08231306040518263ffffffff1660e01b81526004016103b59190610963565b60206040518083038186803b1580156103cd57600080fd5b505afa1580156103e1573d6000803e3d6000fd5b505050506040513d601f19601f8201168201806040525081019061040591906107e7565b670de0b6b3a7640000346104199190610aa5565b111561045a576040517f08c379a000000000000000000000000000000000000000000000000000000000815260040161045190610a39565b60405180910390fd5b6000600a670de0b6b3a7640000346104729190610aa5565b61047c9190610ad6565b9050600160009054906101000a900473ffffffffffffffffffffffffffffffffffffffff1673ffffffffffffffffffffffffffffffffffffffff1663a9059cbb33836040518363ffffffff1660e01b81526004016104db92919061097e565b602060405180830381600087803b1580156104f557600080fd5b505af1158015610509573d6000803e3d6000fd5b505050506040513d601f19601f8201168201806040525081019061052d91906107be565b507f0a37b72bb67eee30e09084cf386f8a17817c57f620c3ab95fb25d6a20356ec77333483604051610561939291906109a7565b60405180910390a150565b61057461068a565b73ffffffffffffffffffffffffffffffffffffffff166105926102e0565b73ffffffffffffffffffffffffffffffffffffffff16146105e8576040517f08c379a00000000000000000000000000000000000000000000000000000000081526004016105df90610a19565b60405180910390fd5b600073ffffffffffffffffffffffffffffffffffffffff168173ffffffffffffffffffffffffffffffffffffffff161415610658576040517f08c379a000000000000000000000000000000000000000000000000000000000815260040161064f906109f9565b60405180910390fd5b61066181610692565b50565b600160009054906101000a900473ffffffffffffffffffffffffffffffffffffffff1681565b600033905090565b60008060009054906101000a900473ffffffffffffffffffffffffffffffffffffffff169050816000806101000a81548173ffffffffffffffffffffffffffffffffffffffff021916908373ffffffffffffffffffffffffffffffffffffffff1602179055508173ffffffffffffffffffffffffffffffffffffffff168173ffffffffffffffffffffffffffffffffffffffff167f8be0079c531659141344cd1fd0a4f28419497f9722a3daafe3b4186f6b6457e060405160405180910390a35050565b60008135905061076581610bfa565b92915050565b60008151905061077a81610c11565b92915050565b60008151905061078f81610c28565b92915050565b6000602082840312156107a757600080fd5b60006107b584828501610756565b91505092915050565b6000602082840312156107d057600080fd5b60006107de8482850161076b565b91505092915050565b6000602082840312156107f957600080fd5b600061080784828501610780565b91505092915050565b61081981610b30565b82525050565b61082881610b78565b82525050565b600061083b602683610a94565b91507f4f776e61626c653a206e6577206f776e657220697320746865207a65726f206160008301527f64647265737300000000000000000000000000000000000000000000000000006020830152604082019050919050565b60006108a1602083610a94565b91507f4f776e61626c653a2063616c6c6572206973206e6f7420746865206f776e65726000830152602082019050919050565b60006108e1601c83610a94565b91507f457863656564732076656e646f7220746f6b656e2062616c616e6365000000006000830152602082019050919050565b6000610921601d83610a94565b91507f496e73756666696369656e742045746820666f72207472616e736665720000006000830152602082019050919050565b61095d81610b6e565b82525050565b60006020820190506109786000830184610810565b92915050565b60006040820190506109936000830185610810565b6109a06020830184610954565b9392505050565b60006060820190506109bc6000830186610810565b6109c96020830185610954565b6109d66040830184610954565b949350505050565b60006020820190506109f3600083018461081f565b92915050565b60006020820190508181036000830152610a128161082e565b9050919050565b60006020820190508181036000830152610a3281610894565b9050919050565b60006020820190508181036000830152610a52816108d4565b9050919050565b60006020820190508181036000830152610a7281610914565b9050919050565b6000602082019050610a8e6000830184610954565b92915050565b600082825260208201905092915050565b6000610ab082610b6e565b9150610abb83610b6e565b925082610acb57610aca610bcb565b5b828204905092915050565b6000610ae182610b6e565b9150610aec83610b6e565b9250817fffffffffffffffffffffffffffffffffffffffffffffffffffffffffffffffff0483118215151615610b2557610b24610b9c565b5b828202905092915050565b6000610b3b82610b4e565b9050919050565b60008115159050919050565b600073ffffffffffffffffffffffffffffffffffffffff82169050919050565b6000819050919050565b6000610b8382610b8a565b9050919050565b6000610b9582610b4e565b9050919050565b7f4e487b7100000000000000000000000000000000000000000000000000000000600052601160045260246000fd5b7f4e487b7100000000000000000000000000000000000000000000000000000000600052601260045260246000fd5b610c0381610b30565b8114610c0e57600080fd5b50565b610c1a81610b42565b8114610c2557600080fd5b50565b610c3181610b6e565b8114610c3c57600080fd5b5056fea264697066735822122094da986958ff32380569993a8fb9c35395bd469baa4d545cdf204003d9adc34864736f6c63430008000033",
  "linkReferences": {},
  "deployedLinkReferences": {}
}