{
  "_format": "hh-sol-artifact-1",
  "contractName": "Vendor",
  "sourceName": "contracts/Vendor.sol",
  "abi": [
    {
      "inputs": [
        {
          "internalType": "address",
          "name": "_tokenAddress",
          "type": "address"
        }
      ],
      "stateMutability": "nonpayable",
      "type": "constructor"
    },
    {
      "anonymous": false,
      "inputs": [
        {
          "indexed": false,
          "internalType": "address",
          "name": "sender",
          "type": "address"
        },
        {
          "indexed": false,
          "internalType": "uint256",
          "name": "amount",
          "type": "uint256"
        },
        {
          "indexed": false,
          "internalType": "uint256",
          "name": "tokensPerEth",
          "type": "uint256"
        }
      ],
      "name": "BuyTokens",
      "type": "event"
    },
    {
      "anonymous": false,
      "inputs": [
        {
          "indexed": true,
          "internalType": "address",
          "name": "previousOwner",
          "type": "address"
        },
        {
          "indexed": true,
          "internalType": "address",
          "name": "newOwner",
          "type": "address"
        }
      ],
      "name": "OwnershipTransferred",
      "type": "event"
    },
    {
      "inputs": [
        {
          "internalType": "address",
          "name": "_sender",
          "type": "address"
        },
        {
          "internalType": "uint256",
          "name": "_amount",
          "type": "uint256"
        }
      ],
      "name": "buyTokens",
      "outputs": [],
      "stateMutability": "nonpayable",
      "type": "function"
    },
    {
      "inputs": [],
      "name": "owner",
      "outputs": [
        {
          "internalType": "address",
          "name": "",
          "type": "address"
        }
      ],
      "stateMutability": "view",
      "type": "function"
    },
    {
      "inputs": [],
      "name": "renounceOwnership",
      "outputs": [],
      "stateMutability": "nonpayable",
      "type": "function"
    },
    {
      "inputs": [],
      "name": "token",
      "outputs": [
        {
          "internalType": "contract Token",
          "name": "",
          "type": "address"
        }
      ],
      "stateMutability": "view",
      "type": "function"
    },
    {
      "inputs": [],
      "name": "tokensPerEth",
      "outputs": [
        {
          "internalType": "uint256",
          "name": "",
          "type": "uint256"
        }
      ],
      "stateMutability": "view",
      "type": "function"
    },
    {
      "inputs": [
        {
          "internalType": "address",
          "name": "newOwner",
          "type": "address"
        }
      ],
      "name": "transferOwnership",
      "outputs": [],
      "stateMutability": "nonpayable",
      "type": "function"
    },
    {
      "inputs": [],
      "name": "withdraw",
      "outputs": [],
      "stateMutability": "nonpayable",
      "type": "function"
    }
  ],
  "bytecode": "0x608060405234801561001057600080fd5b50604051610b50380380610b5083398181016040528101906100329190610176565b61004e61004361009560201b60201c565b61009d60201b60201c565b80600160006101000a81548173ffffffffffffffffffffffffffffffffffffffff021916908373ffffffffffffffffffffffffffffffffffffffff160217905550506101e8565b600033905090565b60008060009054906101000a900473ffffffffffffffffffffffffffffffffffffffff169050816000806101000a81548173ffffffffffffffffffffffffffffffffffffffff021916908373ffffffffffffffffffffffffffffffffffffffff1602179055508173ffffffffffffffffffffffffffffffffffffffff168173ffffffffffffffffffffffffffffffffffffffff167f8be0079c531659141344cd1fd0a4f28419497f9722a3daafe3b4186f6b6457e060405160405180910390a35050565b600081519050610170816101d1565b92915050565b60006020828403121561018857600080fd5b600061019684828501610161565b91505092915050565b60006101aa826101b1565b9050919050565b600073ffffffffffffffffffffffffffffffffffffffff82169050919050565b6101da8161019f565b81146101e557600080fd5b50565b610959806101f76000396000f3fe608060405234801561001057600080fd5b506004361061007d5760003560e01c80638da5cb5b1161005b5780638da5cb5b146100b2578063cbdd69b5146100d0578063f2fde38b146100ee578063fc0c546a1461010a5761007d565b80630752881a146100825780633ccfd60b1461009e578063715018a6146100a8575b600080fd5b61009c600480360381019061009791906105af565b610128565b005b6100a6610229565b005b6100b06102a7565b005b6100ba61032f565b6040516100c791906106e7565b60405180910390f35b6100d8610358565b6040516100e591906107bd565b60405180910390f35b61010860048036038101906101039190610586565b61035d565b005b610112610455565b60405161011f9190610762565b60405180910390f35b6000600a8261013791906107e9565b9050600160009054906101000a900473ffffffffffffffffffffffffffffffffffffffff1673ffffffffffffffffffffffffffffffffffffffff1663a9059cbb84836040518363ffffffff1660e01b8152600401610196929190610702565b602060405180830381600087803b1580156101b057600080fd5b505af11580156101c4573d6000803e3d6000fd5b505050506040513d601f19601f820116820180604052508101906101e891906105eb565b507f0a37b72bb67eee30e09084cf386f8a17817c57f620c3ab95fb25d6a20356ec7783838360405161021c9392919061072b565b60405180910390a1505050565b61023161047b565b73ffffffffffffffffffffffffffffffffffffffff1661024f61032f565b73ffffffffffffffffffffffffffffffffffffffff16146102a5576040517f08c379a000000000000000000000000000000000000000000000000000000000815260040161029c9061079d565b60405180910390fd5b565b6102af61047b565b73ffffffffffffffffffffffffffffffffffffffff166102cd61032f565b73ffffffffffffffffffffffffffffffffffffffff1614610323576040517f08c379a000000000000000000000000000000000000000000000000000000000815260040161031a9061079d565b60405180910390fd5b61032d6000610483565b565b60008060009054906101000a900473ffffffffffffffffffffffffffffffffffffffff16905090565b600a81565b61036561047b565b73ffffffffffffffffffffffffffffffffffffffff1661038361032f565b73ffffffffffffffffffffffffffffffffffffffff16146103d9576040517f08c379a00000000000000000000000000000000000000000000000000000000081526004016103d09061079d565b60405180910390fd5b600073ffffffffffffffffffffffffffffffffffffffff168173ffffffffffffffffffffffffffffffffffffffff161415610449576040517f08c379a00000000000000000000000000000000000000000000000000000000081526004016104409061077d565b60405180910390fd5b61045281610483565b50565b600160009054906101000a900473ffffffffffffffffffffffffffffffffffffffff1681565b600033905090565b60008060009054906101000a900473ffffffffffffffffffffffffffffffffffffffff169050816000806101000a81548173ffffffffffffffffffffffffffffffffffffffff021916908373ffffffffffffffffffffffffffffffffffffffff1602179055508173ffffffffffffffffffffffffffffffffffffffff168173ffffffffffffffffffffffffffffffffffffffff167f8be0079c531659141344cd1fd0a4f28419497f9722a3daafe3b4186f6b6457e060405160405180910390a35050565b600081359050610556816108de565b92915050565b60008151905061056b816108f5565b92915050565b6000813590506105808161090c565b92915050565b60006020828403121561059857600080fd5b60006105a684828501610547565b91505092915050565b600080604083850312156105c257600080fd5b60006105d085828601610547565b92505060206105e185828601610571565b9150509250929050565b6000602082840312156105fd57600080fd5b600061060b8482850161055c565b91505092915050565b61061d81610843565b82525050565b61062c8161088b565b82525050565b600061063f6026836107d8565b91507f4f776e61626c653a206e6577206f776e657220697320746865207a65726f206160008301527f64647265737300000000000000000000000000000000000000000000000000006020830152604082019050919050565b60006106a56020836107d8565b91507f4f776e61626c653a2063616c6c6572206973206e6f7420746865206f776e65726000830152602082019050919050565b6106e181610881565b82525050565b60006020820190506106fc6000830184610614565b92915050565b60006040820190506107176000830185610614565b61072460208301846106d8565b9392505050565b60006060820190506107406000830186610614565b61074d60208301856106d8565b61075a60408301846106d8565b949350505050565b60006020820190506107776000830184610623565b92915050565b6000602082019050818103600083015261079681610632565b9050919050565b600060208201905081810360008301526107b681610698565b9050919050565b60006020820190506107d260008301846106d8565b92915050565b600082825260208201905092915050565b60006107f482610881565b91506107ff83610881565b9250817fffffffffffffffffffffffffffffffffffffffffffffffffffffffffffffffff0483118215151615610838576108376108af565b5b828202905092915050565b600061084e82610861565b9050919050565b60008115159050919050565b600073ffffffffffffffffffffffffffffffffffffffff82169050919050565b6000819050919050565b60006108968261089d565b9050919050565b60006108a882610861565b9050919050565b7f4e487b7100000000000000000000000000000000000000000000000000000000600052601160045260246000fd5b6108e781610843565b81146108f257600080fd5b50565b6108fe81610855565b811461090957600080fd5b50565b61091581610881565b811461092057600080fd5b5056fea2646970667358221220f05cd47b833068b3961b7d431f3370a06ab2bf7bd30fab13364872fc02bec53264736f6c63430008000033",
  "linkReferences": {},
  "deployedLinkReferences": {}
}