{
  "_format": "hh-sol-artifact-1",
  "contractName": "Vendor",
  "sourceName": "contracts/Vendor.sol",
  "abi": [
    {
      "inputs": [
        {
          "internalType": "address",
          "name": "_tokenAddress",
          "type": "address"
        }
      ],
      "stateMutability": "nonpayable",
      "type": "constructor"
    },
    {
      "anonymous": false,
      "inputs": [
        {
          "indexed": false,
          "internalType": "address",
          "name": "sender",
          "type": "address"
        },
        {
          "indexed": false,
          "internalType": "uint256",
          "name": "amount",
          "type": "uint256"
        }
      ],
      "name": "BuyTokens",
      "type": "event"
    },
    {
      "inputs": [
        {
          "internalType": "address",
          "name": "_sender",
          "type": "address"
        },
        {
          "internalType": "uint256",
          "name": "_amount",
          "type": "uint256"
        }
      ],
      "name": "buyTokens",
      "outputs": [],
      "stateMutability": "nonpayable",
      "type": "function"
    },
    {
      "inputs": [],
      "name": "token",
      "outputs": [
        {
          "internalType": "contract Token",
          "name": "",
          "type": "address"
        }
      ],
      "stateMutability": "view",
      "type": "function"
    }
  ],
  "bytecode": "0x608060405234801561001057600080fd5b5060405161048e38038061048e8339818101604052810190610032919061008d565b806000806101000a81548173ffffffffffffffffffffffffffffffffffffffff021916908373ffffffffffffffffffffffffffffffffffffffff160217905550506100ff565b600081519050610087816100e8565b92915050565b60006020828403121561009f57600080fd5b60006100ad84828501610078565b91505092915050565b60006100c1826100c8565b9050919050565b600073ffffffffffffffffffffffffffffffffffffffff82169050919050565b6100f1816100b6565b81146100fc57600080fd5b50565b6103808061010e6000396000f3fe608060405234801561001057600080fd5b50600436106100365760003560e01c80630752881a1461003b578063fc0c546a14610057575b600080fd5b610055600480360381019061005091906101c3565b610075565b005b61005f610160565b60405161006c919061027e565b60405180910390f35b60008054906101000a900473ffffffffffffffffffffffffffffffffffffffff1673ffffffffffffffffffffffffffffffffffffffff1663a9059cbb83836040518363ffffffff1660e01b81526004016100d0929190610255565b602060405180830381600087803b1580156100ea57600080fd5b505af11580156100fe573d6000803e3d6000fd5b505050506040513d601f19601f8201168201806040525081019061012291906101ff565b507f4aff2c4e63da20aaa26764b3e97f557bf5e95b76ddba8f97a156abbecb0818468282604051610154929190610255565b60405180910390a15050565b60008054906101000a900473ffffffffffffffffffffffffffffffffffffffff1681565b60008135905061019381610305565b92915050565b6000815190506101a88161031c565b92915050565b6000813590506101bd81610333565b92915050565b600080604083850312156101d657600080fd5b60006101e485828601610184565b92505060206101f5858286016101ae565b9150509250929050565b60006020828403121561021157600080fd5b600061021f84828501610199565b91505092915050565b61023181610299565b82525050565b610240816102e1565b82525050565b61024f816102d7565b82525050565b600060408201905061026a6000830185610228565b6102776020830184610246565b9392505050565b60006020820190506102936000830184610237565b92915050565b60006102a4826102b7565b9050919050565b60008115159050919050565b600073ffffffffffffffffffffffffffffffffffffffff82169050919050565b6000819050919050565b60006102ec826102f3565b9050919050565b60006102fe826102b7565b9050919050565b61030e81610299565b811461031957600080fd5b50565b610325816102ab565b811461033057600080fd5b50565b61033c816102d7565b811461034757600080fd5b5056fea26469706673582212206fe65a85f32f9424497178e450f48459d2d3b22e297a95e24c31edb3ed1f7ac964736f6c63430008000033",
  "linkReferences": {},
  "deployedLinkReferences": {}
}