{
  "_format": "hh-sol-artifact-1",
  "contractName": "Vendor",
  "sourceName": "contracts/Vendor.sol",
  "abi": [
    {
      "inputs": [
        {
          "internalType": "address",
          "name": "_tokenAddress",
          "type": "address"
        }
      ],
      "stateMutability": "nonpayable",
      "type": "constructor"
    },
    {
      "anonymous": false,
      "inputs": [
        {
          "indexed": false,
          "internalType": "address",
          "name": "sender",
          "type": "address"
        },
        {
          "indexed": false,
          "internalType": "uint256",
          "name": "amount",
          "type": "uint256"
        },
        {
          "indexed": false,
          "internalType": "uint256",
          "name": "tokensPerEth",
          "type": "uint256"
        }
      ],
      "name": "BuyTokens",
      "type": "event"
    },
    {
      "anonymous": false,
      "inputs": [
        {
          "indexed": true,
          "internalType": "address",
          "name": "previousOwner",
          "type": "address"
        },
        {
          "indexed": true,
          "internalType": "address",
          "name": "newOwner",
          "type": "address"
        }
      ],
      "name": "OwnershipTransferred",
      "type": "event"
    },
    {
      "inputs": [],
      "name": "balance",
      "outputs": [
        {
          "internalType": "uint256",
          "name": "",
          "type": "uint256"
        }
      ],
      "stateMutability": "view",
      "type": "function"
    },
    {
      "inputs": [],
      "name": "buyTokens",
      "outputs": [],
      "stateMutability": "payable",
      "type": "function"
    },
    {
      "inputs": [],
      "name": "owner",
      "outputs": [
        {
          "internalType": "address",
          "name": "",
          "type": "address"
        }
      ],
      "stateMutability": "view",
      "type": "function"
    },
    {
      "inputs": [],
      "name": "renounceOwnership",
      "outputs": [],
      "stateMutability": "nonpayable",
      "type": "function"
    },
    {
      "inputs": [],
      "name": "token",
      "outputs": [
        {
          "internalType": "contract Token",
          "name": "",
          "type": "address"
        }
      ],
      "stateMutability": "view",
      "type": "function"
    },
    {
      "inputs": [],
      "name": "tokensPerEth",
      "outputs": [
        {
          "internalType": "uint256",
          "name": "",
          "type": "uint256"
        }
      ],
      "stateMutability": "view",
      "type": "function"
    },
    {
      "inputs": [
        {
          "internalType": "address",
          "name": "newOwner",
          "type": "address"
        }
      ],
      "name": "transferOwnership",
      "outputs": [],
      "stateMutability": "nonpayable",
      "type": "function"
    },
    {
      "inputs": [],
      "name": "withdraw",
      "outputs": [],
      "stateMutability": "nonpayable",
      "type": "function"
    }
  ],
  "bytecode": "0x608060405234801561001057600080fd5b50604051610e00380380610e0083398181016040528101906100329190610176565b61004e61004361009560201b60201c565b61009d60201b60201c565b80600160006101000a81548173ffffffffffffffffffffffffffffffffffffffff021916908373ffffffffffffffffffffffffffffffffffffffff160217905550506101e8565b600033905090565b60008060009054906101000a900473ffffffffffffffffffffffffffffffffffffffff169050816000806101000a81548173ffffffffffffffffffffffffffffffffffffffff021916908373ffffffffffffffffffffffffffffffffffffffff1602179055508173ffffffffffffffffffffffffffffffffffffffff168173ffffffffffffffffffffffffffffffffffffffff167f8be0079c531659141344cd1fd0a4f28419497f9722a3daafe3b4186f6b6457e060405160405180910390a35050565b600081519050610170816101d1565b92915050565b60006020828403121561018857600080fd5b600061019684828501610161565b91505092915050565b60006101aa826101b1565b9050919050565b600073ffffffffffffffffffffffffffffffffffffffff82169050919050565b6101da8161019f565b81146101e557600080fd5b50565b610c09806101f76000396000f3fe60806040526004361061007b5760003560e01c8063cbdd69b51161004e578063cbdd69b514610104578063d0febe4c1461012f578063f2fde38b14610139578063fc0c546a146101625761007b565b80633ccfd60b14610080578063715018a6146100975780638da5cb5b146100ae578063b69ef8a8146100d9575b600080fd5b34801561008c57600080fd5b5061009561018d565b005b3480156100a357600080fd5b506100ac610258565b005b3480156100ba57600080fd5b506100c36102e0565b6040516100d0919061090f565b60405180910390f35b3480156100e557600080fd5b506100ee610309565b6040516100fb9190610a35565b60405180910390f35b34801561011057600080fd5b50610119610311565b6040516101269190610a35565b60405180910390f35b610137610316565b005b34801561014557600080fd5b50610160600480360381019061015b9190610771565b610498565b005b34801561016e57600080fd5b50610177610590565b604051610184919061098a565b60405180910390f35b6101956105b6565b73ffffffffffffffffffffffffffffffffffffffff166101b36102e0565b73ffffffffffffffffffffffffffffffffffffffff1614610209576040517f08c379a0000000000000000000000000000000000000000000000000000000008152600401610200906109f5565b60405180910390fd5b60004790503373ffffffffffffffffffffffffffffffffffffffff166108fc829081150290604051600060405180830381858888f19350505050158015610254573d6000803e3d6000fd5b5050565b6102606105b6565b73ffffffffffffffffffffffffffffffffffffffff1661027e6102e0565b73ffffffffffffffffffffffffffffffffffffffff16146102d4576040517f08c379a00000000000000000000000000000000000000000000000000000000081526004016102cb906109f5565b60405180910390fd5b6102de60006105be565b565b60008060009054906101000a900473ffffffffffffffffffffffffffffffffffffffff16905090565b600047905090565b600a81565b600034141561035a576040517f08c379a000000000000000000000000000000000000000000000000000000000815260040161035190610a15565b60405180910390fd5b6000600a346103699190610a6c565b90506103aa6040518060400160405280600c81526020017f746f6b656e20616d6f756e74000000000000000000000000000000000000000081525082610682565b600160009054906101000a900473ffffffffffffffffffffffffffffffffffffffff1673ffffffffffffffffffffffffffffffffffffffff1663a9059cbb33836040518363ffffffff1660e01b815260040161040792919061092a565b602060405180830381600087803b15801561042157600080fd5b505af1158015610435573d6000803e3d6000fd5b505050506040513d601f19601f82011682018060405250810190610459919061079a565b507f0a37b72bb67eee30e09084cf386f8a17817c57f620c3ab95fb25d6a20356ec7733348360405161048d93929190610953565b60405180910390a150565b6104a06105b6565b73ffffffffffffffffffffffffffffffffffffffff166104be6102e0565b73ffffffffffffffffffffffffffffffffffffffff1614610514576040517f08c379a000000000000000000000000000000000000000000000000000000000815260040161050b906109f5565b60405180910390fd5b600073ffffffffffffffffffffffffffffffffffffffff168173ffffffffffffffffffffffffffffffffffffffff161415610584576040517f08c379a000000000000000000000000000000000000000000000000000000000815260040161057b906109d5565b60405180910390fd5b61058d816105be565b50565b600160009054906101000a900473ffffffffffffffffffffffffffffffffffffffff1681565b600033905090565b60008060009054906101000a900473ffffffffffffffffffffffffffffffffffffffff169050816000806101000a81548173ffffffffffffffffffffffffffffffffffffffff021916908373ffffffffffffffffffffffffffffffffffffffff1602179055508173ffffffffffffffffffffffffffffffffffffffff168173ffffffffffffffffffffffffffffffffffffffff167f8be0079c531659141344cd1fd0a4f28419497f9722a3daafe3b4186f6b6457e060405160405180910390a35050565b61071a82826040516024016106989291906109a5565b6040516020818303038152906040527f9710a9d0000000000000000000000000000000000000000000000000000000007bffffffffffffffffffffffffffffffffffffffffffffffffffffffff19166020820180517bffffffffffffffffffffffffffffffffffffffffffffffffffffffff838183161783525050505061071e565b5050565b60008151905060006a636f6e736f6c652e6c6f679050602083016000808483855afa5050505050565b60008135905061075681610ba5565b92915050565b60008151905061076b81610bbc565b92915050565b60006020828403121561078357600080fd5b600061079184828501610747565b91505092915050565b6000602082840312156107ac57600080fd5b60006107ba8482850161075c565b91505092915050565b6107cc81610ac6565b82525050565b6107db81610b0e565b82525050565b60006107ec82610a50565b6107f68185610a5b565b9350610806818560208601610b32565b61080f81610b94565b840191505092915050565b6000610827602683610a5b565b91507f4f776e61626c653a206e6577206f776e657220697320746865207a65726f206160008301527f64647265737300000000000000000000000000000000000000000000000000006020830152604082019050919050565b600061088d602083610a5b565b91507f4f776e61626c653a2063616c6c6572206973206e6f7420746865206f776e65726000830152602082019050919050565b60006108cd601d83610a5b565b91507f496e73756666696369656e742045746820666f72207472616e736665720000006000830152602082019050919050565b61090981610b04565b82525050565b600060208201905061092460008301846107c3565b92915050565b600060408201905061093f60008301856107c3565b61094c6020830184610900565b9392505050565b600060608201905061096860008301866107c3565b6109756020830185610900565b6109826040830184610900565b949350505050565b600060208201905061099f60008301846107d2565b92915050565b600060408201905081810360008301526109bf81856107e1565b90506109ce6020830184610900565b9392505050565b600060208201905081810360008301526109ee8161081a565b9050919050565b60006020820190508181036000830152610a0e81610880565b9050919050565b60006020820190508181036000830152610a2e816108c0565b9050919050565b6000602082019050610a4a6000830184610900565b92915050565b600081519050919050565b600082825260208201905092915050565b6000610a7782610b04565b9150610a8283610b04565b9250817fffffffffffffffffffffffffffffffffffffffffffffffffffffffffffffffff0483118215151615610abb57610aba610b65565b5b828202905092915050565b6000610ad182610ae4565b9050919050565b60008115159050919050565b600073ffffffffffffffffffffffffffffffffffffffff82169050919050565b6000819050919050565b6000610b1982610b20565b9050919050565b6000610b2b82610ae4565b9050919050565b60005b83811015610b50578082015181840152602081019050610b35565b83811115610b5f576000848401525b50505050565b7f4e487b7100000000000000000000000000000000000000000000000000000000600052601160045260246000fd5b6000601f19601f8301169050919050565b610bae81610ac6565b8114610bb957600080fd5b50565b610bc581610ad8565b8114610bd057600080fd5b5056fea264697066735822122067ac3c3077a2908df438744987f5ffbc043b1b33416055332bba2a9e51a3755964736f6c63430008000033",
  "linkReferences": {},
  "deployedLinkReferences": {}
}