{
  "_format": "hh-sol-artifact-1",
  "contractName": "Vendor",
  "sourceName": "contracts/Vendor.sol",
  "abi": [
    {
      "inputs": [
        {
          "internalType": "address",
          "name": "_tokenAddress",
          "type": "address"
        }
      ],
      "stateMutability": "nonpayable",
      "type": "constructor"
    },
    {
      "inputs": [
        {
          "internalType": "uint256",
          "name": "_amount",
          "type": "uint256"
        }
      ],
      "name": "buyTokens",
      "outputs": [],
      "stateMutability": "nonpayable",
      "type": "function"
    },
    {
      "inputs": [],
      "name": "token",
      "outputs": [
        {
          "internalType": "contract Token",
          "name": "",
          "type": "address"
        }
      ],
      "stateMutability": "view",
      "type": "function"
    }
  ],
  "bytecode": "0x608060405234801561001057600080fd5b506040516104153803806104158339818101604052810190610032919061008d565b806000806101000a81548173ffffffffffffffffffffffffffffffffffffffff021916908373ffffffffffffffffffffffffffffffffffffffff160217905550506100ff565b600081519050610087816100e8565b92915050565b60006020828403121561009f57600080fd5b60006100ad84828501610078565b91505092915050565b60006100c1826100c8565b9050919050565b600073ffffffffffffffffffffffffffffffffffffffff82169050919050565b6100f1816100b6565b81146100fc57600080fd5b50565b6103078061010e6000396000f3fe608060405234801561001057600080fd5b50600436106100365760003560e01c80633610724e1461003b578063fc0c546a14610057575b600080fd5b6100556004803603810190610050919061019d565b610075565b005b61005f610126565b60405161006c919061021c565b60405180910390f35b60008054906101000a900473ffffffffffffffffffffffffffffffffffffffff1673ffffffffffffffffffffffffffffffffffffffff1663a9059cbb33836040518363ffffffff1660e01b81526004016100d09291906101f3565b602060405180830381600087803b1580156100ea57600080fd5b505af11580156100fe573d6000803e3d6000fd5b505050506040513d601f19601f820116820180604052508101906101229190610174565b5050565b60008054906101000a900473ffffffffffffffffffffffffffffffffffffffff1681565b600081519050610159816102a3565b92915050565b60008135905061016e816102ba565b92915050565b60006020828403121561018657600080fd5b60006101948482850161014a565b91505092915050565b6000602082840312156101af57600080fd5b60006101bd8482850161015f565b91505092915050565b6101cf81610237565b82525050565b6101de8161027f565b82525050565b6101ed81610275565b82525050565b600060408201905061020860008301856101c6565b61021560208301846101e4565b9392505050565b600060208201905061023160008301846101d5565b92915050565b600061024282610255565b9050919050565b60008115159050919050565b600073ffffffffffffffffffffffffffffffffffffffff82169050919050565b6000819050919050565b600061028a82610291565b9050919050565b600061029c82610255565b9050919050565b6102ac81610249565b81146102b757600080fd5b50565b6102c381610275565b81146102ce57600080fd5b5056fea264697066735822122066778394f718122600794d025f5f94cb2821a850c33a021c48defdd0a89166a664736f6c63430008000033",
  "linkReferences": {},
  "deployedLinkReferences": {}
}