{
  "_format": "hh-sol-artifact-1",
  "contractName": "Vendor",
  "sourceName": "contracts/Vendor.sol",
  "abi": [
    {
      "inputs": [
        {
          "internalType": "address",
          "name": "_tokenAddress",
          "type": "address"
        }
      ],
      "stateMutability": "nonpayable",
      "type": "constructor"
    },
    {
      "anonymous": false,
      "inputs": [
        {
          "indexed": false,
          "internalType": "address",
          "name": "sender",
          "type": "address"
        },
        {
          "indexed": false,
          "internalType": "uint256",
          "name": "amount",
          "type": "uint256"
        },
        {
          "indexed": false,
          "internalType": "uint256",
          "name": "tokensPerEth",
          "type": "uint256"
        }
      ],
      "name": "BuyTokens",
      "type": "event"
    },
    {
      "anonymous": false,
      "inputs": [
        {
          "indexed": true,
          "internalType": "address",
          "name": "previousOwner",
          "type": "address"
        },
        {
          "indexed": true,
          "internalType": "address",
          "name": "newOwner",
          "type": "address"
        }
      ],
      "name": "OwnershipTransferred",
      "type": "event"
    },
    {
      "anonymous": false,
      "inputs": [
        {
          "indexed": false,
          "internalType": "address",
          "name": "sender",
          "type": "address"
        },
        {
          "indexed": false,
          "internalType": "uint256",
          "name": "amount",
          "type": "uint256"
        },
        {
          "indexed": false,
          "internalType": "uint256",
          "name": "tokensPerEth",
          "type": "uint256"
        }
      ],
      "name": "SellTokens",
      "type": "event"
    },
    {
      "inputs": [],
      "name": "balance",
      "outputs": [
        {
          "internalType": "uint256",
          "name": "",
          "type": "uint256"
        }
      ],
      "stateMutability": "view",
      "type": "function"
    },
    {
      "inputs": [],
      "name": "buyTokens",
      "outputs": [],
      "stateMutability": "payable",
      "type": "function"
    },
    {
      "inputs": [],
      "name": "owner",
      "outputs": [
        {
          "internalType": "address",
          "name": "",
          "type": "address"
        }
      ],
      "stateMutability": "view",
      "type": "function"
    },
    {
      "inputs": [],
      "name": "renounceOwnership",
      "outputs": [],
      "stateMutability": "nonpayable",
      "type": "function"
    },
    {
      "inputs": [
        {
          "internalType": "uint256",
          "name": "_amount",
          "type": "uint256"
        }
      ],
      "name": "sellTokens",
      "outputs": [],
      "stateMutability": "payable",
      "type": "function"
    },
    {
      "inputs": [],
      "name": "token",
      "outputs": [
        {
          "internalType": "contract Token",
          "name": "",
          "type": "address"
        }
      ],
      "stateMutability": "view",
      "type": "function"
    },
    {
      "inputs": [],
      "name": "tokensPerEth",
      "outputs": [
        {
          "internalType": "uint256",
          "name": "",
          "type": "uint256"
        }
      ],
      "stateMutability": "view",
      "type": "function"
    },
    {
      "inputs": [
        {
          "internalType": "address",
          "name": "newOwner",
          "type": "address"
        }
      ],
      "name": "transferOwnership",
      "outputs": [],
      "stateMutability": "nonpayable",
      "type": "function"
    },
    {
      "inputs": [],
      "name": "withdraw",
      "outputs": [],
      "stateMutability": "nonpayable",
      "type": "function"
    }
  ],
  "bytecode": "0x60806040523480156200001157600080fd5b506040516200137938038062001379833981810160405281019062000037919062000182565b620000576200004b6200009f60201b60201c565b620000a760201b60201c565b80600160006101000a81548173ffffffffffffffffffffffffffffffffffffffff021916908373ffffffffffffffffffffffffffffffffffffffff16021790555050620001fc565b600033905090565b60008060009054906101000a900473ffffffffffffffffffffffffffffffffffffffff169050816000806101000a81548173ffffffffffffffffffffffffffffffffffffffff021916908373ffffffffffffffffffffffffffffffffffffffff1602179055508173ffffffffffffffffffffffffffffffffffffffff168173ffffffffffffffffffffffffffffffffffffffff167f8be0079c531659141344cd1fd0a4f28419497f9722a3daafe3b4186f6b6457e060405160405180910390a35050565b6000815190506200017c81620001e2565b92915050565b6000602082840312156200019557600080fd5b6000620001a5848285016200016b565b91505092915050565b6000620001bb82620001c2565b9050919050565b600073ffffffffffffffffffffffffffffffffffffffff82169050919050565b620001ed81620001ae565b8114620001f957600080fd5b50565b61116d806200020c6000396000f3fe6080604052600436106100865760003560e01c8063b69ef8a811610059578063b69ef8a814610100578063cbdd69b51461012b578063d0febe4c14610156578063f2fde38b14610160578063fc0c546a1461018957610086565b80633ccfd60b1461008b5780636c11bcd3146100a2578063715018a6146100be5780638da5cb5b146100d5575b600080fd5b34801561009757600080fd5b506100a06101b4565b005b6100bc60048036038101906100b79190610a9c565b6102df565b005b3480156100ca57600080fd5b506100d36105c7565b005b3480156100e157600080fd5b506100ea61064f565b6040516100f79190610d70565b60405180910390f35b34801561010c57600080fd5b50610115610678565b6040516101229190610f66565b60405180910390f35b34801561013757600080fd5b50610140610680565b60405161014d9190610f66565b60405180910390f35b61015e610685565b005b34801561016c57600080fd5b5061018760048036038101906101829190610a4a565b61080c565b005b34801561019557600080fd5b5061019e610904565b6040516101ab9190610e4b565b60405180910390f35b6101bc61092a565b73ffffffffffffffffffffffffffffffffffffffff166101da61064f565b73ffffffffffffffffffffffffffffffffffffffff1614610230576040517f08c379a000000000000000000000000000000000000000000000000000000000815260040161022790610ee6565b60405180910390fd5b60003373ffffffffffffffffffffffffffffffffffffffff164760405161025690610d5b565b60006040518083038185875af1925050503d8060008114610293576040519150601f19603f3d011682016040523d82523d6000602084013e610298565b606091505b50509050806102dc576040517f08c379a00000000000000000000000000000000000000000000000000000000081526004016102d390610ec6565b60405180910390fd5b50565b6000600160009054906101000a900473ffffffffffffffffffffffffffffffffffffffff1673ffffffffffffffffffffffffffffffffffffffff1663dd62ed3e33306040518363ffffffff1660e01b815260040161033e929190610d8b565b60206040518083038186803b15801561035657600080fd5b505afa15801561036a573d6000803e3d6000fd5b505050506040513d601f19601f8201168201806040525081019061038e9190610ac5565b9050818110156103d3576040517f08c379a00000000000000000000000000000000000000000000000000000000081526004016103ca90610f46565b60405180910390fd5b6000600160009054906101000a900473ffffffffffffffffffffffffffffffffffffffff1673ffffffffffffffffffffffffffffffffffffffff166323b872dd3330866040518463ffffffff1660e01b815260040161043493929190610db4565b602060405180830381600087803b15801561044e57600080fd5b505af1158015610462573d6000803e3d6000fd5b505050506040513d601f19601f820116820180604052508101906104869190610a73565b9050806104c8576040517f08c379a00000000000000000000000000000000000000000000000000000000081526004016104bf90610ea6565b60405180910390fd5b60006001846104d79190610f9d565b905060003373ffffffffffffffffffffffffffffffffffffffff16826040516104ff90610d5b565b60006040518083038185875af1925050503d806000811461053c576040519150601f19603f3d011682016040523d82523d6000602084013e610541565b606091505b5050905080610585576040517f08c379a000000000000000000000000000000000000000000000000000000000815260040161057c90610f26565b60405180910390fd5b7fa24838acd4af5195a2396965dae5abf54e84e8c19f5698bb966ae64e29994ee53383876040516105b893929190610e14565b60405180910390a15050505050565b6105cf61092a565b73ffffffffffffffffffffffffffffffffffffffff166105ed61064f565b73ffffffffffffffffffffffffffffffffffffffff1614610643576040517f08c379a000000000000000000000000000000000000000000000000000000000815260040161063a90610ee6565b60405180910390fd5b61064d6000610932565b565b60008060009054906101000a900473ffffffffffffffffffffffffffffffffffffffff16905090565b600047905090565b600181565b60006001346106949190610fce565b905060003414156106da576040517f08c379a00000000000000000000000000000000000000000000000000000000081526004016106d190610f06565b60405180910390fd5b6000600160009054906101000a900473ffffffffffffffffffffffffffffffffffffffff1673ffffffffffffffffffffffffffffffffffffffff1663a9059cbb33846040518363ffffffff1660e01b8152600401610739929190610deb565b602060405180830381600087803b15801561075357600080fd5b505af1158015610767573d6000803e3d6000fd5b505050506040513d601f19601f8201168201806040525081019061078b9190610a73565b9050806107cd576040517f08c379a00000000000000000000000000000000000000000000000000000000081526004016107c490610e66565b60405180910390fd5b7f0a37b72bb67eee30e09084cf386f8a17817c57f620c3ab95fb25d6a20356ec7733348460405161080093929190610e14565b60405180910390a15050565b61081461092a565b73ffffffffffffffffffffffffffffffffffffffff1661083261064f565b73ffffffffffffffffffffffffffffffffffffffff1614610888576040517f08c379a000000000000000000000000000000000000000000000000000000000815260040161087f90610ee6565b60405180910390fd5b600073ffffffffffffffffffffffffffffffffffffffff168173ffffffffffffffffffffffffffffffffffffffff1614156108f8576040517f08c379a00000000000000000000000000000000000000000000000000000000081526004016108ef90610e86565b60405180910390fd5b61090181610932565b50565b600160009054906101000a900473ffffffffffffffffffffffffffffffffffffffff1681565b600033905090565b60008060009054906101000a900473ffffffffffffffffffffffffffffffffffffffff169050816000806101000a81548173ffffffffffffffffffffffffffffffffffffffff021916908373ffffffffffffffffffffffffffffffffffffffff1602179055508173ffffffffffffffffffffffffffffffffffffffff168173ffffffffffffffffffffffffffffffffffffffff167f8be0079c531659141344cd1fd0a4f28419497f9722a3daafe3b4186f6b6457e060405160405180910390a35050565b600081359050610a05816110f2565b92915050565b600081519050610a1a81611109565b92915050565b600081359050610a2f81611120565b92915050565b600081519050610a4481611120565b92915050565b600060208284031215610a5c57600080fd5b6000610a6a848285016109f6565b91505092915050565b600060208284031215610a8557600080fd5b6000610a9384828501610a0b565b91505092915050565b600060208284031215610aae57600080fd5b6000610abc84828501610a20565b91505092915050565b600060208284031215610ad757600080fd5b6000610ae584828501610a35565b91505092915050565b610af781611028565b82525050565b610b0681611070565b82525050565b6000610b19601983610f8c565b91507f4661696c656420746f207472616e7366657220746f6b656e73000000000000006000830152602082019050919050565b6000610b59602683610f8c565b91507f4f776e61626c653a206e6577206f776e657220697320746865207a65726f206160008301527f64647265737300000000000000000000000000000000000000000000000000006020830152604082019050919050565b6000610bbf601583610f8c565b91507f746f6b656e207472616e73666572206661696c656400000000000000000000006000830152602082019050919050565b6000610bff601083610f8c565b91507f7769746864726177206661696c757265000000000000000000000000000000006000830152602082019050919050565b6000610c3f602083610f8c565b91507f4f776e61626c653a2063616c6c6572206973206e6f7420746865206f776e65726000830152602082019050919050565b6000610c7f601d83610f8c565b91507f496e73756666696369656e742045746820666f72207472616e736665720000006000830152602082019050919050565b6000610cbf600083610f81565b9150600082019050919050565b6000610cd9601883610f8c565b91507f7472616e7366657220657468206261636b206661696c656400000000000000006000830152602082019050919050565b6000610d19601f83610f8c565b91507f596f7520646f6e2774206861766520656e6f75676820616c6c6f77616e6365006000830152602082019050919050565b610d5581611066565b82525050565b6000610d6682610cb2565b9150819050919050565b6000602082019050610d856000830184610aee565b92915050565b6000604082019050610da06000830185610aee565b610dad6020830184610aee565b9392505050565b6000606082019050610dc96000830186610aee565b610dd66020830185610aee565b610de36040830184610d4c565b949350505050565b6000604082019050610e006000830185610aee565b610e0d6020830184610d4c565b9392505050565b6000606082019050610e296000830186610aee565b610e366020830185610d4c565b610e436040830184610d4c565b949350505050565b6000602082019050610e606000830184610afd565b92915050565b60006020820190508181036000830152610e7f81610b0c565b9050919050565b60006020820190508181036000830152610e9f81610b4c565b9050919050565b60006020820190508181036000830152610ebf81610bb2565b9050919050565b60006020820190508181036000830152610edf81610bf2565b9050919050565b60006020820190508181036000830152610eff81610c32565b9050919050565b60006020820190508181036000830152610f1f81610c72565b9050919050565b60006020820190508181036000830152610f3f81610ccc565b9050919050565b60006020820190508181036000830152610f5f81610d0c565b9050919050565b6000602082019050610f7b6000830184610d4c565b92915050565b600081905092915050565b600082825260208201905092915050565b6000610fa882611066565b9150610fb383611066565b925082610fc357610fc26110c3565b5b828204905092915050565b6000610fd982611066565b9150610fe483611066565b9250817fffffffffffffffffffffffffffffffffffffffffffffffffffffffffffffffff048311821515161561101d5761101c611094565b5b828202905092915050565b600061103382611046565b9050919050565b60008115159050919050565b600073ffffffffffffffffffffffffffffffffffffffff82169050919050565b6000819050919050565b600061107b82611082565b9050919050565b600061108d82611046565b9050919050565b7f4e487b7100000000000000000000000000000000000000000000000000000000600052601160045260246000fd5b7f4e487b7100000000000000000000000000000000000000000000000000000000600052601260045260246000fd5b6110fb81611028565b811461110657600080fd5b50565b6111128161103a565b811461111d57600080fd5b50565b61112981611066565b811461113457600080fd5b5056fea264697066735822122000ff4f9f6be2dd614bee3aaf082a311822343c307388d63e35416bd1ccec2f4364736f6c63430008000033",
  "linkReferences": {},
  "deployedLinkReferences": {}
}